[
  {
    "bHash": "0x798ab2829ee2c0899352020986a8c5fc8ea7637ce7109a0a6f756b192e0edd6a",
    "cost": "21000000000000",
    "creTime": 1577157135474,
    "from": "0x60ceca9c1290ee56b98d4e160ef0453f7c40d219",
    "gasLimit": "21000",
    "gasPrice": "1000000000",
    "gasUsed": "21000",
    "hash": "0x713cba09d1b105ef067ad6e7c5f04dea4294634d54d0b64d9952bfd477c722ef",
    "id": 12,
    "index": 0,
    "info": "{}",
    "input": "0x",
    "nonce": "1",
    "num": 5399,
    "seq": 53990000,
    "status": 1,
    "time": 1577157466885,
    "to": "0xfd9d508df262a1c968e0d6c757ab08b96d741f4b",
    "toType": 2,
    "type": 0,
    "typeEnum": "TRANSFER",
    "updTime": 1577157135474,
    "value": "1000000000000000000"
  },
  {
    "bHash":"0x8cb40389f72196a43812116cd8cd293edb250e02fc5f38cb5c6f165576210aab",
    "cost":"42638000000000000",
    "creTime":1576833396638,
    "from":"0x9c2fbda729cb340ff60d4eede26235d6324d9529",
    "gasLimit":"85276",
    "gasPrice":"500000000000",
    "gasUsed":"85276",
    "hash":"0xf2528311f7ec27ec5ab00b6bad08766b1a27bcd67cee6348f4b6c81156de36e2",
    "id":2,
    "index":0,
    "info":"{\"amount\":2000000000000000000000000,\"benefitAddress\":\"0xba336581bc500d838fc93368986b06bb91152df3\",\"details\":\"asdf\",\"externalId\":\"asdf\",\"nodeId\":\"0x4cc7be9ec01466fc4f14365f6700da36f3eb157473047f32bded7b1c0c00955979a07a8914895f7ee59af9cb1e6b638aa57c91a918f7a84633a92074f286b208\",\"nodeName\":\"haishen1\",\"programVersion\":1797,\"type\":0,\"website\":\"http://baidu.com\"}",
    "input":"0xf90186838203e881809594ba336581bc500d838fc93368986b06bb91152df3b842b8404cc7be9ec01466fc4f14365f6700da36f3eb157473047f32bded7b1c0c00955979a07a8914895f7ee59af9cb1e6b638aa57c91a918f7a84633a92074f286b20885846173646689886861697368656e319190687474703a2f2f62616964752e636f6d8584617364668c8b01a784379d99db4200000083820705b843b841b109d4db2991b0c35d0d1a70b02032eefefc820a7c8077e43859c0799ddf9c681e2a2f316ff9d1f055ea266e5a04a3b9bee2a01f00f3f4da7d3e4e3404b446fa00b862b860e311da21c30acbc9889ac7b5e2e3aef7a4e565074889560e3252d1916ab9235d2e26782dae2c43d2e5ed569d55435a15faf267d8c95cd22fa09603672eea7e73b6469895822475c9876fbd3772a83ac61bc46a52f587b0ab8375f4a9067b8893b842b8405f5d514124bfc7773cac67ce657788deed6a691451ef34ceb3af8b7e4a79a851b35f869301ff3a7147b5d309eeb405e00384da7874de59e8942b8cbc4d23922a",
    "nonce":"0",
    "num":1708,
    "seq":17080000,
    "status":1,
    "time":1576724317262,
    "to":"0x1000000000000000000000000000000000000002",
    "toType":1,
    "type":1000,
    "typeEnum":"STAKE_CREATE",
    "updTime":1576833396638,
    "value":"0"
  },
  {
    "bHash":"0x40e280c0354326779bd3a764bc442a55928271376e3574fc6480ebaaef24ca66",
    "cost":"24566000000000000",
    "creTime":1576833590636,
    "failReason":"301006",
    "from":"0x2e95e3ce0a54951eb9a99152a6d5827872dfb4fd",
    "gasLimit":"49132",
    "gasPrice":"500000000000",
    "gasUsed":"49132",
    "hash":"0x31008215f2bbd8a30dc9a5e9e7cb8d4b56bd5640f472ea25070c8f47dcef0931",
    "id":14,
    "index":0,
    "info":"{\"benefitAddress\":\"0x60ceca9c1290ee56b98d4e160ef0453f7c40d219\",\"details\":\"Node of CDM\",\"externalId\":\"5FD68B690010632B\",\"nodeId\":\"0x0aa9805681d8f77c05f317efc141c97d5adb511ffb51f5a251d2d7a4a3a96d9a12adf39f06b702f0ccdff9eddc1790eb272dca31b0c47751d49b5931c58701e7\",\"nodeName\":\"cdm-004\",\"website\":\"WWW.CCC.COM\"}",
    "input":"0xf893838203e9959460ceca9c1290ee56b98d4e160ef0453f7c40d219b842b8400aa9805681d8f77c05f317efc141c97d5adb511ffb51f5a251d2d7a4a3a96d9a12adf39f06b702f0ccdff9eddc1790eb272dca31b0c47751d49b5931c58701e7919035464436384236393030313036333242888763646d2d3030348c8b5757572e4343432e434f4d8c8b4e6f6465206f662043444d",
    "nonce":"9",
    "num":8267,
    "seq":82670000,
    "status":2,
    "time":1576728289683,
    "to":"0x1000000000000000000000000000000000000002",
    "toType":1,
    "type":1001,
    "typeEnum":"STAKE_MODIFY",
    "updTime":1576833590636,
    "value":"0"
  },
  {
    "bHash":"0xae200f44c31b4c910047516989fac0341696b38303d9f04377ec1289cb248c38",
    "cost":"26398000000000000",
    "creTime":1576833590646,
    "failReason":"301006",
    "from":"0x2e95e3ce0a54951eb9a99152a6d5827872dfb4fd",
    "gasLimit":"52796",
    "gasPrice":"500000000000",
    "gasUsed":"52796",
    "hash":"0xfa905465493169ef566523b5b2f4f2c030fdbeac7913fce26eb79ea73a3e5bb3",
    "id":15,
    "index":0,
    "info":"{\"amount\":5000000000000000000000000,\"nodeId\":\"0x0aa9805681d8f77c05f317efc141c97d5adb511ffb51f5a251d2d7a4a3a96d9a12adf39f06b702f0ccdff9eddc1790eb272dca31b0c47751d49b5931c58701e7\",\"type\":0}",
    "input":"0xf857838203eab842b8400aa9805681d8f77c05f317efc141c97d5adb511ffb51f5a251d2d7a4a3a96d9a12adf39f06b702f0ccdff9eddc1790eb272dca31b0c47751d49b5931c58701e781808c8b0422ca8b0a00a425000000",
    "nonce":"10",
    "num":8270,
    "seq":82700000,
    "status":2,
    "time":1576728291495,
    "to":"0x1000000000000000000000000000000000000002",
    "toType":1,
    "type":1002,
    "typeEnum":"STAKE_INCREASE",
    "updTime":1576833590646,
    "value":"0"
  },
  {
    "bHash":"0x91e6854aa8755826c43a11f68c04db02c1a26e4780ee99f3d1d9ba14460bb350",
    "cost":"1019029200000000000000",
    "creTime":1576833498860,
    "from":"0x9c2fbda729cb340ff60d4eede26235d6324d9529",
    "gasLimit":"485252",
    "gasPrice":"2100000000000000",
    "gasUsed":"485252",
    "hash":"0x368a15c5303e962c435cc8a58c1c1ff19682d5c0861559ca42310fc6be9560a7",
    "id":9,
    "index":0,
    "info":"{\"endVotingRound\":20,\"newVersion\":65536,\"pIDID\":\"1\",\"verifier\":\"0x4cc7be9ec01466fc4f14365f6700da36f3eb157473047f32bded7b1c0c00955979a07a8914895f7ee59af9cb1e6b638aa57c91a918f7a84633a92074f286b208\"}",
    "input":"0xf84f838207d1b842b8404cc7be9ec01466fc4f14365f6700da36f3eb157473047f32bded7b1c0c00955979a07a8914895f7ee59af9cb1e6b638aa57c91a918f7a84633a92074f286b20831848301000014",
    "nonce":"1",
    "num":5939,
    "seq":59390000,
    "status":1,
    "time":1576726879774,
    "to":"0x1000000000000000000000000000000000000005",
    "toType":1,
    "type":2001,
    "typeEnum":"PROPOSAL_UPGRADE",
    "updTime":1576833498860,
    "value":"0"
  },
  {
    "bHash":"0xe99fb54dd158b37103d76d97dc53b6b7774f60e9a691471717ec10d8531a8bfc",
    "cost":"22060000000000000",
    "creTime":1576833546134,
    "failReason":"302025",
    "from":"0x9c2fbda729cb340ff60d4eede26235d6324d9529",
    "gasLimit":"44120",
    "gasPrice":"500000000000",
    "gasUsed":"44120",
    "hash":"0xaccda542aae8bb19d4853e100c41362757f3bd052f5d857485c3ca3905e895c9",
    "id":10,
    "index":0,
    "info":"{\"option\":\"1\",\"programVersion\":\"1797\",\"proposalId\":\"0x368a15c5303e962c435cc8a58c1c1ff19682d5c0861559ca42310fc6be9560a7\",\"verifier\":\"0x4cc7be9ec01466fc4f14365f6700da36f3eb157473047f32bded7b1c0c00955979a07a8914895f7ee59af9cb1e6b638aa57c91a918f7a84633a92074f286b208\",\"versionSign\":\"0xb109d4db2991b0c35d0d1a70b02032eefefc820a7c8077e43859c0799ddf9c681e2a2f316ff9d1f055ea266e5a04a3b9bee2a01f00f3f4da7d3e4e3404b446fa00\"}",
    "input":"0xf8b4838207d3b842b8404cc7be9ec01466fc4f14365f6700da36f3eb157473047f32bded7b1c0c00955979a07a8914895f7ee59af9cb1e6b638aa57c91a918f7a84633a92074f286b208a1a0368a15c5303e962c435cc8a58c1c1ff19682d5c0861559ca42310fc6be9560a70183820705b843b841b109d4db2991b0c35d0d1a70b02032eefefc820a7c8077e43859c0799ddf9c681e2a2f316ff9d1f055ea266e5a04a3b9bee2a01f00f3f4da7d3e4e3404b446fa00",
    "nonce":"2",
    "num":6152,
    "seq":61520000,
    "status":2,
    "time":1576727008859,
    "to":"0x1000000000000000000000000000000000000005",
    "toType":1,
    "type":2003,
    "typeEnum":"PROPOSAL_VOTE",
    "updTime":1576833546134,
    "value":"0"
  },
  {
    "bHash": "0x9a2dcd9048c7e319c567e83a244fcbcb9d4820c1816b883f31342459939874e4",
    "cost": "1074008000000000000000",
    "creTime": 1577154028817,
    "from": "0x2e95e3ce0a54951eb9a99152a6d5827872dfb4fd",
    "gasLimit": "537004",
    "gasPrice": "2000000000000000",
    "gasUsed": "537004",
    "hash": "0x122c48410618a8fe8238ecb474c08a2f209d48f31e85808990db57d45eb1f02d",
    "id": 7,
    "index": 0,
    "info": "{\"module\":\"staking\",\"name\":\"maxValidators\",\"newValue\":\"20\",\"nodeName\":\"cdm-004\",\"pIDID\":\"5\",\"verifier\":\"0x0aa9805681d8f77c05f317efc141c97d5adb511ffb51f5a251d2d7a4a3a96d9a12adf39f06b702f0ccdff9eddc1790eb272dca31b0c47751d49b5931c58701e7\"}",
    "input": "0xf865838207d2b842b8400aa9805681d8f77c05f317efc141c97d5adb511ffb51f5a251d2d7a4a3a96d9a12adf39f06b702f0ccdff9eddc1790eb272dca31b0c47751d49b5931c58701e73588877374616b696e678e8d6d617856616c696461746f727383823230",
    "nonce": "5",
    "num": 273,
    "seq": 2730000,
    "status": 1,
    "time": 1577154359984,
    "to": "0x1000000000000000000000000000000000000005",
    "toType": 1,
    "type": 2002,
    "typeEnum": "PROPOSAL_PARAMETER",
    "updTime": 1577154028817,
    "value": "0"
  },
  {
    "bHash":"0xae75331671f9666dc69848adb4d1f5f98c99b44fdff797dbbbe99ad13ba2ced3",
    "cost":"532458000000000000000",
    "creTime":1576833732058,
    "from":"0x9c2fbda729cb340ff60d4eede26235d6324d9529",
    "gasLimit":"354972",
    "gasPrice":"1500000000000000",
    "gasUsed":"354972",
    "hash":"0xfa64bb49ea8c0fdc2cca037ed16e0cf3e6b2a7f0a2502430b922f5ce09f47421",
    "id":19,
    "index":0,
    "info":"{\"pIDID\":\"2\",\"verifier\":\"0x4cc7be9ec01466fc4f14365f6700da36f3eb157473047f32bded7b1c0c00955979a07a8914895f7ee59af9cb1e6b638aa57c91a918f7a84633a92074f286b208\"}",
    "input":"0xf849838207d0b842b8404cc7be9ec01466fc4f14365f6700da36f3eb157473047f32bded7b1c0c00955979a07a8914895f7ee59af9cb1e6b638aa57c91a918f7a84633a92074f286b20832",
    "nonce":"3",
    "num":19077,
    "seq":190770000,
    "status":1,
    "time":1576734837162,
    "to":"0x1000000000000000000000000000000000000005",
    "toType":1,
    "type":2000,
    "typeEnum":"PROPOSAL_TEXT",
    "updTime":1576833732058,
    "value":"0"
  },
  {
    "bHash":"0x75a31ae2d317cdd7f0d18c7fb28d576bb25100e2bf6af687f2bf7129f79498ec",
    "cost":"24428000000000000",
    "creTime":1576833590868,
    "from":"0x60ceca9c1290ee56b98d4e160ef0453f7c40d219",
    "gasLimit":"48856",
    "gasPrice":"500000000000",
    "gasUsed":"48856",
    "hash":"0x00dbaac981611fa0cf5b7c1ea97c5a5ae3f69b30966132a2d084c4187b0dcb6d",
    "id":16,
    "index":0,
    "info":"{\"amount\":65000000000000000000000,\"nodeId\":\"0x0aa9805681d8f77c05f317efc141c97d5adb511ffb51f5a251d2d7a4a3a96d9a12adf39f06b702f0ccdff9eddc1790eb272dca31b0c47751d49b5931c58701e7\",\"nodeName\":\"\",\"type\":0}",
    "input":"0xf856838203ec8180b842b8400aa9805681d8f77c05f317efc141c97d5adb511ffb51f5a251d2d7a4a3a96d9a12adf39f06b702f0ccdff9eddc1790eb272dca31b0c47751d49b5931c58701e78b8a0dc3a8351f3d86a00000",
    "nonce":"0",
    "num":8277,
    "seq":82770000,
    "status":1,
    "time":1576728295718,
    "to":"0x1000000000000000000000000000000000000002",
    "toType":1,
    "type":1004,
    "typeEnum":"DELEGATE_CREATE",
    "updTime":1576833590868,
    "value":"0"
  },
  {
    "bHash":"0x32c454ce7f610ed7a60048cb34125fa41e8bfb6f46b9c1a2344101fc1e9b1b83",
    "cost":"97522000000000000",
    "creTime":1576833710930,
    "from":"0x60ceca9c1290ee56b98d4e160ef0453f7c40d219",
    "gasLimit":"195044",
    "gasPrice":"500000000000",
    "gasUsed":"195044",
    "hash":"0xe115fb572ad8b93e070fe7672feffe1b7fb83e2c9ab4b9e33715ea1ec1cc374a",
    "id":18,
    "index":0,
    "info":"{\"data\":\"{\\\"prepareA\\\":{\\\"epoch\\\":0,\\\"viewNumber\\\":0,\\\"blockHash\\\":\\\"0x62d12daae1d63bfa678d2ba71e791f950f06da62d1108e2206b904d267c73db6\\\",\\\"blockNumber\\\":18687,\\\"blockIndex\\\":0,\\\"blockData\\\":\\\"0xe7232cb826cfc519cdb5befe09389d737200353f152bb36057408c8ea463e5da\\\",\\\"validateNode\\\":{\\\"index\\\":0,\\\"address\\\":\\\"0xcfe51d85f9965f6d031e4e3cce688eab7c95e940\\\",\\\"nodeId\\\":\\\"bfc9d6578bab4e510755575e47b7d137fcf0ad0bcf10ed4d023640dfb41b197b9f0d8014e47ecbe4d51f15db514009cbda109ebcf0b7afe06600d6d423bb7fbf\\\",\\\"blsPubKey\\\":\\\"b4713797d296c9fe1749d22eb59b03d9694ab896b71449b0e6daf2d1ecb3a9d3d6e9c258b37acb2d07fa82bcb55ced144fb4b056d6cd192a509859615b090128d6e5686e84df47951e1781625627907054975f76e427da8d32d3f30b9a53e60f\\\"},\\\"signature\\\":\\\"0xd1c17d9b5d4dc133987c93cd50bb66ef5626e7412377ba85a58ac2a3b7a0e5687167eafcfb507c0bc7c01bf36281998400000000000000000000000000000000\\\"},\\\"prepareB\\\":{\\\"epoch\\\":0,\\\"viewNumber\\\":0,\\\"blockHash\\\":\\\"0xbb6b13ad34fd9c2f4cff49c7a831f30f8bab159b03ac33b581109cf1480812f0\\\",\\\"blockNumber\\\":18687,\\\"blockIndex\\\":0,\\\"blockData\\\":\\\"0x524f2e9832abbc856521442a92c0709f56685a76fa3e6691f2276cf26ffec5a6\\\",\\\"validateNode\\\":{\\\"index\\\":0,\\\"address\\\":\\\"0xcfe51d85f9965f6d031e4e3cce688eab7c95e940\\\",\\\"nodeId\\\":\\\"bfc9d6578bab4e510755575e47b7d137fcf0ad0bcf10ed4d023640dfb41b197b9f0d8014e47ecbe4d51f15db514009cbda109ebcf0b7afe06600d6d423bb7fbf\\\",\\\"blsPubKey\\\":\\\"b4713797d296c9fe1749d22eb59b03d9694ab896b71449b0e6daf2d1ecb3a9d3d6e9c258b37acb2d07fa82bcb55ced144fb4b056d6cd192a509859615b090128d6e5686e84df47951e1781625627907054975f76e427da8d32d3f30b9a53e60f\\\"},\\\"signature\\\":\\\"0x4c4618dde71d282294e0452c41bafeef03728f14ac882b25d808a71d15a40094c02831e76bbf40020803d0cccbf8ab9100000000000000000000000000000000\\\"}}\",\"type\":1,\"verify\":\"0xbfc9d6578bab4e510755575e47b7d137fcf0ad0bcf10ed4d023640dfb41b197b9f0d8014e47ecbe4d51f15db514009cbda109ebcf0b7afe06600d6d423bb7fbf\"}",
    "input":"0xf9065e83820bb801b90656b906537b227072657061726541223a7b2265706f6368223a302c22766965774e756d626572223a302c22626c6f636b48617368223a22307836326431326461616531643633626661363738643262613731653739316639353066303664613632643131303865323230366239303464323637633733646236222c22626c6f636b4e756d626572223a31383638372c22626c6f636b496e646578223a302c22626c6f636b44617461223a22307865373233326362383236636663353139636462356265666530393338396437333732303033353366313532626233363035373430386338656134363365356461222c2276616c69646174654e6f6465223a7b22696e646578223a302c2261646472657373223a22307863666535316438356639393635663664303331653465336363653638386561623763393565393430222c226e6f64654964223a226266633964363537386261623465353130373535353735653437623764313337666366306164306263663130656434643032333634306466623431623139376239663064383031346534376563626534643531663135646235313430303963626461313039656263663062376166653036363030643664343233626237666266222c22626c735075624b6579223a22623437313337393764323936633966653137343964323265623539623033643936393461623839366237313434396230653664616632643165636233613964336436653963323538623337616362326430376661383262636235356365643134346662346230353664366364313932613530393835393631356230393031323864366535363836653834646634373935316531373831363235363237393037303534393735663736653432376461386433326433663330623961353365363066227d2c227369676e6174757265223a2230786431633137643962356434646331333339383763393363643530626236366566353632366537343132333737626138356135386163326133623761306535363837313637656166636662353037633062633763303162663336323831393938343030303030303030303030303030303030303030303030303030303030303030227d2c227072657061726542223a7b2265706f6368223a302c22766965774e756d626572223a302c22626c6f636b48617368223a22307862623662313361643334666439633266346366663439633761383331663330663862616231353962303361633333623538313130396366313438303831326630222c22626c6f636b4e756d626572223a31383638372c22626c6f636b496e646578223a302c22626c6f636b44617461223a22307835323466326539383332616262633835363532313434326139326330373039663536363835613736666133653636393166323237366366323666666563356136222c2276616c69646174654e6f6465223a7b22696e646578223a302c2261646472657373223a22307863666535316438356639393635663664303331653465336363653638386561623763393565393430222c226e6f64654964223a226266633964363537386261623465353130373535353735653437623764313337666366306164306263663130656434643032333634306466623431623139376239663064383031346534376563626534643531663135646235313430303963626461313039656263663062376166653036363030643664343233626237666266222c22626c735075624b6579223a22623437313337393764323936633966653137343964323265623539623033643936393461623839366237313434396230653664616632643165636233613964336436653963323538623337616362326430376661383262636235356365643134346662346230353664366364313932613530393835393631356230393031323864366535363836653834646634373935316531373831363235363237393037303534393735663736653432376461386433326433663330623961353365363066227d2c227369676e6174757265223a2230783463343631386464653731643238323239346530343532633431626166656566303337323866313461633838326232356438303861373164313561343030393463303238333165373662626634303032303830336430636363626638616239313030303030303030303030303030303030303030303030303030303030303030227d7d",
    "nonce":"1",
    "num":18743,
    "seq":187430000,
    "status":1,
    "time":1576734634913,
    "to":"0x1000000000000000000000000000000000000004",
    "toType":1,
    "type":3000,
    "typeEnum":"REPORT",
    "updTime":1576833710930,
    "value":"0"
  },
  {
    "bHash": "0xdeffc97c29f567801cd06c3624edbd624a7b960b5d7996700f53569570e30d1b",
    "cost": "46242000000000000",
    "creTime": 1577153998630,
    "from": "0x2e95e3ce0a54951eb9a99152a6d5827872dfb4fd",
    "gasLimit": "92484",
    "gasPrice": "500000000000",
    "gasUsed": "92484",
    "hash": "0x93f986eb077f3265051a08396bf69c53dda4b053ab1386af1daa7f65abae0e13",
    "id": 6,
    "index": 0,
    "info": "{\"account\":\"0x60ceca9c1290ee56b98d4e160ef0453f7c40d219\",\"plans\":[{\"amount\":5000000000000000000,\"epoch\":1000},{\"amount\":600000000000000000,\"epoch\":2000}]}",
    "input": "0xf683820fa0959460ceca9c1290ee56b98d4e160ef0453f7c40d2199bdacc8203e8884563918244f40000cc8207d0880853a0d2313c0000",
    "nonce": "4",
    "num": 224,
    "seq": 2240000,
    "status": 1,
    "time": 1577154330252,
    "to": "0x1000000000000000000000000000000000000001",
    "toType": 1,
    "type": 4000,
    "typeEnum": "RESTRICTING_CREATE",
    "updTime": 1577153998630,
    "value": "0"
  }
]
