[
  {
    "hash":"0x00dbaac981611fa0cf5b7c1ea97c5a5ae3f69b30966132a2d084c4187b0dcb6d",
    "block_number":21952,
    "block_hash":"0xebd670f8a258ee218a37ddb57a4efc8e3547c1f62f5923090c3235a48ce5f1c1",
    "transaction_index":0,
    "timestamp":"2019-09-17 22:05:45",
    "nonce":"0",
    "tx_receipt_status":1,
    "gas_price":"500000000000",
    "gas_used":"48856",
    "gas_limit":"48856",
    "from":"0x60ceca9c1290ee56b98d4e160ef0453f7c40d219",
    "to":"0x1000000000000000000000000000000000000002",
    "value":"0",
    "input":"0xf856838203ec8180b842b8400aa9805681d8f77c05f317efc141c97d5adb511ffb51f5a251d2d7a4a3a96d9a12adf39f06b702f0ccdff9eddc1790eb272dca31b0c47751d49b5931c58701e78b8a0dc3a8351f3d86a00000",
    "tx_info":"{\"amount\":\"65000000000000000000000\",\"nodeId\":\"0x0aa9805681d8f77c05f317efc141c97d5adb511ffb51f5a251d2d7a4a3a96d9a12adf39f06b702f0ccdff9eddc1790eb272dca31b0c47751d49b5931c58701e7\",\"nodeName\":\"cdm-004\",\"stakingBlockNum\":\"21924\",\"type\":0}",
    "tx_type":"1004",
    "actual_tx_cost":"24428000000000000",
    "fail_reason":null,
    "receive_type":"contract",
    "sequence":219520000,
    "create_time":"2019-09-17 22:04:17",
    "update_time":"2019-09-17 22:04:17"
  },
  {
    "hash":"0x199606ca32a23d1f07bf6881973b7d0f5a3af5b381e510fa723f658c91238f60",
    "block_number":21924,
    "block_hash":"0xb5f9f96b837ac77a4397787b220495dcc21541cba53391f0431bf58c93ba22bd",
    "transaction_index":0,
    "timestamp":"2019-09-17 22:05:28",
    "nonce":"1",
    "tx_receipt_status":1,
    "gas_price":"500000000000",
    "gas_used":"89144",
    "gas_limit":"89144",
    "from":"0x2e95e3ce0a54951eb9a99152a6d5827872dfb4fd",
    "to":"0x1000000000000000000000000000000000000002",
    "value":"0",
    "input":"0xf901bd838203e88180959460ceca9c1290ee56b98d4e160ef0453f7c40d219b842b8400aa9805681d8f77c05f317efc141c97d5adb511ffb51f5a251d2d7a4a3a96d9a12adf39f06b702f0ccdff9eddc1790eb272dca31b0c47751d49b5931c58701e79190354644363842363930303130363332428a897a726a2d6e6f6465318e8d7777772e62616964752e636f6d96956368656e6461692d6e6f6465312d64657461696c738c8b0422ca8b0a00a42500000083820702b843b841d801fe525ad6a0965325b547980e0ee595111bf4d52fc6f138f103656be9262c1bcc16289f2a21bbb11723d322800271ac0134f3f2a6dff597333fdc788b135f00b8c2b8c0623630316564383833386138633032616264396530613438616261333331356434393766666364646534393063663963346234366465343539393133356364643237366234356234396534346265623331656561346266643166313437633030343563393837626166343563306164646238396638333038393838366533623665316434343433663030646334626533383038646539366531633966303263303630383637303430383637613632343038356262333864303162616330313037",
    "tx_info":"{\"amount\":\"5000000000000000000000000\",\"benefitAddress\":\"0x60ceca9c1290ee56b98d4e160ef0453f7c40d219\",\"blockNumber\":\"21924\",\"details\":\"chendai-node1-details\",\"externalId\":\"5FD68B690010632B\",\"nodeId\":\"0x0aa9805681d8f77c05f317efc141c97d5adb511ffb51f5a251d2d7a4a3a96d9a12adf39f06b702f0ccdff9eddc1790eb272dca31b0c47751d49b5931c58701e7\",\"nodeName\":\"zrj-node1\",\"programVersion\":\"1794\",\"type\":0,\"website\":\"www.baidu.com\"}",
    "tx_type":"1000",
    "actual_tx_cost":"44572000000000000",
    "fail_reason":null,
    "receive_type":"contract",
    "sequence":219240000,
    "create_time":"2019-09-17 22:04:00",
    "update_time":"2019-09-17 22:04:00"
  },
  {
    "hash":"0x1cfc68877e0dc23a0887b4eb08ee973b483ca583bd01407a6d4912b34af74214",
    "block_number":22224,
    "block_hash":"0x955cb8b66a185c14a1e3067445d0d493788f9a74a70bdb083302b4cf42996623",
    "transaction_index":0,
    "timestamp":"2019-09-17 22:08:27",
    "nonce":"5",
    "tx_receipt_status":0,
    "gas_price":"500000000000",
    "gas_used":"44248",
    "gas_limit":"44248",
    "from":"0x2e95e3ce0a54951eb9a99152a6d5827872dfb4fd",
    "to":"0x1000000000000000000000000000000000000005",
    "value":"0",
    "input":"0xf8b4838207d3b842b8400aa9805681d8f77c05f317efc141c97d5adb511ffb51f5a251d2d7a4a3a96d9a12adf39f06b702f0ccdff9eddc1790eb272dca31b0c47751d49b5931c58701e7a1a0b851e45c6894ecd2737aad0112001d64fd8e14877010767406665f5efe9f45e70183820702b843b841d801fe525ad6a0965325b547980e0ee595111bf4d52fc6f138f103656be9262c1bcc16289f2a21bbb11723d322800271ac0134f3f2a6dff597333fdc788b135f00",
    "tx_info":"{\"option\":\"1\",\"programVersion\":\"1794\",\"proposalId\":\"0xb851e45c6894ecd2737aad0112001d64fd8e14877010767406665f5efe9f45e7\",\"verifier\":\"0x0aa9805681d8f77c05f317efc141c97d5adb511ffb51f5a251d2d7a4a3a96d9a12adf39f06b702f0ccdff9eddc1790eb272dca31b0c47751d49b5931c58701e7\",\"versionSign\":\"0xd801fe525ad6a0965325b547980e0ee595111bf4d52fc6f138f103656be9262c1bcc16289f2a21bbb11723d322800271ac0134f3f2a6dff597333fdc788b135f00\"}",
    "tx_type":"2003",
    "actual_tx_cost":"22124000000000000",
    "fail_reason":"proposal not found",
    "receive_type":"contract",
    "sequence":222240000,
    "create_time":"2019-09-17 22:06:59",
    "update_time":"2019-09-17 22:06:59"
  },
  {
    "hash":"0x2614d734ef351c546c9f308e4f44b708d68c528f242c138f20548ed967d398f4",
    "block_number":21941,
    "block_hash":"0x53e94018ff4a0bf38f78af5d08dd19f91db51beb3fb1a5ea89ad892ba0568c1f",
    "transaction_index":0,
    "timestamp":"2019-09-17 22:05:38",
    "nonce":"3",
    "tx_receipt_status":1,
    "gas_price":"500000000000",
    "gas_used":"52796",
    "gas_limit":"52796",
    "from":"0x2e95e3ce0a54951eb9a99152a6d5827872dfb4fd",
    "to":"0x1000000000000000000000000000000000000002",
    "value":"0",
    "input":"0xf857838203eab842b8400aa9805681d8f77c05f317efc141c97d5adb511ffb51f5a251d2d7a4a3a96d9a12adf39f06b702f0ccdff9eddc1790eb272dca31b0c47751d49b5931c58701e781808c8b0422ca8b0a00a425000000",
    "tx_info":"{\"amount\":\"5000000000000000000000000\",\"nodeId\":\"0x0aa9805681d8f77c05f317efc141c97d5adb511ffb51f5a251d2d7a4a3a96d9a12adf39f06b702f0ccdff9eddc1790eb272dca31b0c47751d49b5931c58701e7\",\"nodeName\":\"cdm-004\",\"stakingBlockNum\":\"\",\"type\":0}",
    "tx_type":"1002",
    "actual_tx_cost":"26398000000000000",
    "fail_reason":null,
    "receive_type":"contract",
    "sequence":219410000,
    "create_time":"2019-09-17 22:04:11",
    "update_time":"2019-09-17 22:04:11"
  },
  {
    "hash":"0x368a196f519933ebc31ba0f15fcee04cd0997cee872901179f7e770ab5fa9573",
    "block_number":72956,
    "block_hash":"0x4040a388edfcb81185c2fdea1e0ce1f842ec2a87d4ded780e61797861afbea3a",
    "transaction_index":0,
    "timestamp":"2019-09-18 10:21:13",
    "nonce":"1",
    "tx_receipt_status":1,
    "gas_price":"500000000000",
    "gas_used":"40992",
    "gas_limit":"40992",
    "from":"0x60ceca9c1290ee56b98d4e160ef0453f7c40d219",
    "to":"0x1000000000000000000000000000000000000002",
    "value":"0",
    "input":"0xf858838203ed838255a4b842b8400aa9805681d8f77c05f317efc141c97d5adb511ffb51f5a251d2d7a4a3a96d9a12adf39f06b702f0ccdff9eddc1790eb272dca31b0c47751d49b5931c58701e78b8a021e19e0c9bab2400000",
    "tx_info":"{\"amount\":\"10000000000000000000000\",\"nodeId\":\"0x0aa9805681d8f77c05f317efc141c97d5adb511ffb51f5a251d2d7a4a3a96d9a12adf39f06b702f0ccdff9eddc1790eb272dca31b0c47751d49b5931c58701e7\",\"nodeName\":\"cdm-004\",\"stakingBlockNum\":\"21924\"}",
    "tx_type":"1005",
    "actual_tx_cost":"20496000000000000",
    "fail_reason":null,
    "receive_type":"contract",
    "sequence":729560000,
    "create_time":"2019-09-18 10:19:50",
    "update_time":"2019-09-18 10:19:50"
  },
  {
    "hash":"0x5a4609ccf2ff65ac8596397cecb9795d286dfe894232bcdeb2553a49ea39200f",
    "block_number":72876,
    "block_hash":"0x5fd579a0167feecf797e8d831a67a4089816f47ce11004f37b7cc3f5a03cfaec",
    "transaction_index":0,
    "timestamp":"2019-09-18 10:19:33",
    "nonce":"8",
    "tx_receipt_status":1,
    "gas_price":"2100000000000000",
    "gas_used":"485440",
    "gas_limit":"485440",
    "from":"0x2e95e3ce0a54951eb9a99152a6d5827872dfb4fd",
    "to":"0x1000000000000000000000000000000000000005",
    "value":"0",
    "input":"0xf84e838207d1b842b8400aa9805681d8f77c05f317efc141c97d5adb511ffb51f5a251d2d7a4a3a96d9a12adf39f06b702f0ccdff9eddc1790eb272dca31b0c47751d49b5931c58701e73283824e2004",
    "tx_info":"{\"endVotingRound\":4,\"newVersion\":20000,\"nodeName\":\"cdm-004\",\"pIDID\":\"2\",\"verifier\":\"0x0aa9805681d8f77c05f317efc141c97d5adb511ffb51f5a251d2d7a4a3a96d9a12adf39f06b702f0ccdff9eddc1790eb272dca31b0c47751d49b5931c58701e7\"}",
    "tx_type":"2001",
    "actual_tx_cost":"1019424000000000000000",
    "fail_reason":null,
    "receive_type":"contract",
    "sequence":728760000,
    "create_time":"2019-09-18 10:18:07",
    "update_time":"2019-09-18 10:18:07"
  },
  {
    "hash":"0x5e38503af4d6f9765c17102acdbe5cbe8a24545437f425103f4a0a4ff4cfed4d",
    "block_number":72882,
    "block_hash":"0x51cfdb7c0e51ca952c13342d048172ab0d08d6fd2175078c7da59a0898e4c63f",
    "transaction_index":0,
    "timestamp":"2019-09-18 10:19:41",
    "nonce":"9",
    "tx_receipt_status":1,
    "gas_price":"3000000000000000",
    "gas_used":"537480",
    "gas_limit":"537480",
    "from":"0x2e95e3ce0a54951eb9a99152a6d5827872dfb4fd",
    "to":"0x1000000000000000000000000000000000000005",
    "value":"0",
    "input":"0xf86c838207d5b842b8400aa9805681d8f77c05f317efc141c97d5adb511ffb51f5a251d2d7a4a3a96d9a12adf39f06b702f0ccdff9eddc1790eb272dca31b0c47751d49b5931c58701e73301a1a05a4609ccf2ff65ac8596397cecb9795d286dfe894232bcdeb2553a49ea39200f",
    "tx_info":"{\"canceledProposalID\":\"0x5a4609ccf2ff65ac8596397cecb9795d286dfe894232bcdeb2553a49ea39200f\",\"endVotingRound\":1,\"nodeName\":\"cdm-004\",\"pIDID\":\"3\",\"verifier\":\"0x0aa9805681d8f77c05f317efc141c97d5adb511ffb51f5a251d2d7a4a3a96d9a12adf39f06b702f0ccdff9eddc1790eb272dca31b0c47751d49b5931c58701e7\"}",
    "tx_type":"2005",
    "actual_tx_cost":"1612440000000000000000",
    "fail_reason":null,
    "receive_type":"contract",
    "sequence":728820000,
    "create_time":"2019-09-18 10:18:15",
    "update_time":"2019-09-18 10:18:15"
  },
  {
    "hash":"0x62cc25b3ca3b5ee4d2b9e24b48080955fdd909a5da23d3b6aa0c185c2e59b925",
    "block_number":72857,
    "block_hash":"0xd7acccf96cc88e991560eba2cbee1e369b7885d97308a347c34e276817016c88",
    "transaction_index":0,
    "timestamp":"2019-09-18 10:19:04",
    "nonce":"7",
    "tx_receipt_status":1,
    "gas_price":"500000000000",
    "gas_used":"44312",
    "gas_limit":"44312",
    "from":"0x2e95e3ce0a54951eb9a99152a6d5827872dfb4fd",
    "to":"0x1000000000000000000000000000000000000005",
    "value":"0",
    "input":"0xf8b4838207d3b842b8400aa9805681d8f77c05f317efc141c97d5adb511ffb51f5a251d2d7a4a3a96d9a12adf39f06b702f0ccdff9eddc1790eb272dca31b0c47751d49b5931c58701e7a1a06eeca4c3a441bb445cf2f38bf5c0bb0eec0244dabc4d8cd5e356e758fc98c2f70183820702b843b841d801fe525ad6a0965325b547980e0ee595111bf4d52fc6f138f103656be9262c1bcc16289f2a21bbb11723d322800271ac0134f3f2a6dff597333fdc788b135f00",
    "tx_info":"{\"nodeName\":\"cdm-004\",\"option\":\"1\",\"pIDID\":\"1\",\"programVersion\":\"1794\",\"proposalId\":\"0x6eeca4c3a441bb445cf2f38bf5c0bb0eec0244dabc4d8cd5e356e758fc98c2f7\",\"proposalType\":\"1\",\"url\":\"https://github.com/danielgogo/PIPs/blob/master/PIP-1.md\",\"verifier\":\"0x0aa9805681d8f77c05f317efc141c97d5adb511ffb51f5a251d2d7a4a3a96d9a12adf39f06b702f0ccdff9eddc1790eb272dca31b0c47751d49b5931c58701e7\",\"versionSign\":\"0xd801fe525ad6a0965325b547980e0ee595111bf4d52fc6f138f103656be9262c1bcc16289f2a21bbb11723d322800271ac0134f3f2a6dff597333fdc788b135f00\"}",
    "tx_type":"2003",
    "actual_tx_cost":"22156000000000000",
    "fail_reason":null,
    "receive_type":"contract",
    "sequence":728570000,
    "create_time":"2019-09-18 10:17:38",
    "update_time":"2019-09-18 10:17:38"
  },
  {
    "hash":"0x6eeca4c3a441bb445cf2f38bf5c0bb0eec0244dabc4d8cd5e356e758fc98c2f7",
    "block_number":72849,
    "block_hash":"0x05598f569a3ba8bb0ebfaad24b38800b419f70108b261b30cfdff224e50770d4",
    "transaction_index":0,
    "timestamp":"2019-09-18 10:18:52",
    "nonce":"6",
    "tx_receipt_status":1,
    "gas_price":"1500000000000000",
    "gas_used":"355100",
    "gas_limit":"355100",
    "from":"0x2e95e3ce0a54951eb9a99152a6d5827872dfb4fd",
    "to":"0x1000000000000000000000000000000000000005",
    "value":"0",
    "input":"0xf849838207d0b842b8400aa9805681d8f77c05f317efc141c97d5adb511ffb51f5a251d2d7a4a3a96d9a12adf39f06b702f0ccdff9eddc1790eb272dca31b0c47751d49b5931c58701e731",
    "tx_info":"{\"nodeName\":\"cdm-004\",\"pIDID\":\"1\",\"verifier\":\"0x0aa9805681d8f77c05f317efc141c97d5adb511ffb51f5a251d2d7a4a3a96d9a12adf39f06b702f0ccdff9eddc1790eb272dca31b0c47751d49b5931c58701e7\"}",
    "tx_type":"2000",
    "actual_tx_cost":"532650000000000000000",
    "fail_reason":null,
    "receive_type":"contract",
    "sequence":728490000,
    "create_time":"2019-09-18 10:17:25",
    "update_time":"2019-09-18 10:17:25"
  },
  {
    "hash":"0xb851e45c6894ecd2737aad0112001d64fd8e14877010767406665f5efe9f45e7",
    "block_number":22214,
    "block_hash":"0xe6b387b057017ecb493ba07a4d1d05db1bf1962f71a360eb346c410a0eea1727",
    "transaction_index":0,
    "timestamp":"2019-09-17 22:08:21",
    "nonce":"4",
    "tx_receipt_status":0,
    "gas_price":"1500000000000000",
    "gas_used":"355100",
    "gas_limit":"355100",
    "from":"0x2e95e3ce0a54951eb9a99152a6d5827872dfb4fd",
    "to":"0x1000000000000000000000000000000000000005",
    "value":"0",
    "input":"0xf849838207d0b842b8400aa9805681d8f77c05f317efc141c97d5adb511ffb51f5a251d2d7a4a3a96d9a12adf39f06b702f0ccdff9eddc1790eb272dca31b0c47751d49b5931c58701e731",
    "tx_info":"{\"pIDID\":\"1\",\"verifier\":\"0x0aa9805681d8f77c05f317efc141c97d5adb511ffb51f5a251d2d7a4a3a96d9a12adf39f06b702f0ccdff9eddc1790eb272dca31b0c47751d49b5931c58701e7\"}",
    "tx_type":"2000",
    "actual_tx_cost":"532650000000000000000",
    "fail_reason":"Tx caller is not verifier",
    "receive_type":"contract",
    "sequence":222140000,
    "create_time":"2019-09-17 22:06:54",
    "update_time":"2019-09-17 22:06:54"
  },
  {
    "hash":"0xcfbb24d0881dde12606405b39250fd692adfcefe0ed198313e425a113d7e6b72",
    "block_number":21931,
    "block_hash":"0x14675f5aab8ef3be559803e6e4358261920876daf2cc83b4f5172ce3e00f4d48",
    "transaction_index":0,
    "timestamp":"2019-09-17 22:05:32",
    "nonce":"2",
    "tx_receipt_status":1,
    "gas_price":"500000000000",
    "gas_used":"49132",
    "gas_limit":"49132",
    "from":"0x2e95e3ce0a54951eb9a99152a6d5827872dfb4fd",
    "to":"0x1000000000000000000000000000000000000002",
    "value":"0",
    "input":"0xf893838203e9959460ceca9c1290ee56b98d4e160ef0453f7c40d219b842b8400aa9805681d8f77c05f317efc141c97d5adb511ffb51f5a251d2d7a4a3a96d9a12adf39f06b702f0ccdff9eddc1790eb272dca31b0c47751d49b5931c58701e7919035464436384236393030313036333242888763646d2d3030348c8b5757572e4343432e434f4d8c8b4e6f6465206f662043444d",
    "tx_info":"{\"benefitAddress\":\"0x60ceca9c1290ee56b98d4e160ef0453f7c40d219\",\"blockNumber\":\"21924\",\"details\":\"Node of CDM\",\"externalId\":\"0x35464436384236393030313036333242\",\"nodeId\":\"0x0aa9805681d8f77c05f317efc141c97d5adb511ffb51f5a251d2d7a4a3a96d9a12adf39f06b702f0ccdff9eddc1790eb272dca31b0c47751d49b5931c58701e7\",\"nodeName\":\"cdm-004\",\"perNodeName\":\"cdm-004\",\"website\":\"WWW.CCC.COM\"}",
    "tx_type":"1001",
    "actual_tx_cost":"24566000000000000",
    "fail_reason":null,
    "receive_type":"contract",
    "sequence":219310000,
    "create_time":"2019-09-17 22:04:04",
    "update_time":"2019-09-17 22:04:04"
  },
  {
    "hash":"0xef5a2e763910f427b03d3c97892165b9b220f00435404c7f81f215f2cf10b873",
    "block_number":21913,
    "block_hash":"0xdf31c94def8057e5facc69d700f08492d9dd12ae25b8e6a39f3adf1e81793876",
    "transaction_index":0,
    "timestamp":"2019-09-17 22:05:21",
    "nonce":"0",
    "tx_receipt_status":1,
    "gas_price":"100000000",
    "gas_used":"21168",
    "gas_limit":"210000",
    "from":"0x2e95e3ce0a54951eb9a99152a6d5827872dfb4fd",
    "to":"0x60ceca9c1290ee56b98d4e160ef0453f7c40d219",
    "value":"1000000000000000000000000000",
    "input":"0xc9880000000000000000",
    "tx_info":"null",
    "tx_type":"0",
    "actual_tx_cost":"2116800000000",
    "fail_reason":null,
    "receive_type":"account",
    "sequence":219130000,
    "create_time":"2019-09-17 22:03:53",
    "update_time":"2019-09-17 22:03:53"
  }]