[ 
{ 
"hash":"0x43315db5d9a453cfc3b85580723bd47c4ec12d7abae20d062264bfa6006e409c",
"block_number":27472,
"block_hash":"0x20f04551c9502b74aeedfea2f019afbb971a3f7711acc7ea2af85b594e3fa17f",
"transaction_index":0,
"timestamp":"2019-09-09 14:59:45",
"nonce":"5",
"tx_receipt_status":1,
"gas_price":"500000000000",
"gas_used":"89412",
"gas_limit":"120336",
"from":"0x95440ec5cf94563f2177eaccd988538f48f706e4",
"to":"0x1000000000000000000000000000000000000002",
"value":"0",
"input":"0xf901c0838203e881809594bb5dfb2146836b80cefac9f42b915d727536fb3eb842b840402295350f6c15e951449d3ecddf1ed32cf6da4556f47ddd93d39d451683f05285cb541c438cfc55eaae86984c8855edf2e24ebc3b463921586274af00c6678c919035464436384236393030313036333242949368735f737461746963345f3137312d746573749594687474703a2f2f7777772e62616964752e636f6d888764657461696c738c8b084595161401484a00000083820701b843b841e42649060dc7aafb3ce396c17d5087440cb13d7e61eeaaf35f75e43cb5c6a18a6aafdc138e1e358f1ca6fb40361abe13664fa7b974f03912ee14b1aa7c5efb7d01b8c2b8c0366230326466636338346530326563316439616239313134656166646666353034383634643230653762333766386261393561373636386161643235376133333965336136653337656465636264623437643630313262643335303539663139613136393739336238323466623233303964356661346136636462633962363861643065356262306464366236396232313336613432396631323936303234306434643838653734333335316565303964386333643562393433666437343138",
"tx_info":"{\"amount\":\"10000000000000000000000000\",\"benefitAddress\":\"0xbb5dfb2146836b80cefac9f42b915d727536fb3e\",\"blockNumber\":\"27472\",\"details\":\"details\",\"externalId\":\"5FD68B690010632B\",\"nodeId\":\"0x402295350f6c15e951449d3ecddf1ed32cf6da4556f47ddd93d39d451683f05285cb541c438cfc55eaae86984c8855edf2e24ebc3b463921586274af00c6678c\",\"nodeName\":\"hs_static4_171-test\",\"programVersion\":\"1793\",\"type\":0,\"website\":\"http://www.baidu.com\"}",
"tx_type":"1000",
"actual_tx_cost":"44706000000000000",
"fail_reason":null,
"receive_type":"contract",
"sequence":274720000,
"create_time":"2019-09-09 17:17:58",
"update_time":"2019-09-09 17:17:58",
"root":"0x4bafabb7ef85413251f289339265e295d9785c949e060893e8498c3e5970c428",
"cumulative_gas_used":"89412",
"logs_bloom":"0x00000000000000000000000000000000000000000000000000000000000000000000000000000000000000000000000000000000000000000000000000000000000000000000000000400000000000000000000000000000000080000000000000000000000000000000000000000000000000000000000000000000000000000000000000000000000000000000002000000000000000000000200000000000080000000000000000000000000000000000000000000000000000000000000000000000000000000000000000000000000000000002000000000000000000000000000000000000000000000000000000000000000000000000000000000000",
"logs":"[{\"address\":\"0x1000000000000000000000000000000000000002\",\"blockHash\":\"0x20f04551c9502b74aeedfea2f019afbb971a3f7711acc7ea2af85b594e3fa17f\",\"blockNumber\":27472,\"blockNumberRaw\":\"0x6b50\",\"data\":\"0xe8a77b22537461747573223a747275652c2244617461223a22222c224572724d7367223a226f6b227d\",\"logIndex\":47,\"logIndexRaw\":\"0x2f\",\"removed\":false,\"topics\":[\"0xd63087bea9f1800eed943829fc1d61e7869764805baa3259078c1caf3d4f5a48\"],\"transactionHash\":\"0x43315db5d9a453cfc3b85580723bd47c4ec12d7abae20d062264bfa6006e409c\",\"transactionIndex\":0,\"transactionIndexRaw\":\"0x0\"}]"
},
{ 
"hash":"0x536ee1de3da029cce7b728141d037eab250f88e7fcd8c280ad7a0969b9c22848",
"block_number":25903,
"block_hash":"0x1203434661778157fa31301a447104211da7413acad9720c2c9cfd1c3cb559cd",
"transaction_index":0,
"timestamp":"2019-09-09 14:41:37",
"nonce":"12",
"tx_receipt_status":0,
"gas_price":"3000000000000000",
"gas_used":"537684",
"gas_limit":"545368",
"from":"0x493301712671ada506ba6ca7891f436d29185821",
"to":"0x1000000000000000000000000000000000000005",
"value":"0",
"input":"0xf86f838207d5b842b840a396a79a861d6bb9c967066a831bb628ed9e50b4d4042c1af4234e59304f79f0dbe84de8c6eb61224a86f5250811188f84950c843fac97278bdac310c6456b598382333502a1a0be5da22d2cbd6deb06a021de59996f15d755e2943911066f86196508a0dafc71",
"tx_info":"{\"canceledProposalID\":\"0xbe5da22d2cbd6deb06a021de59996f15d755e2943911066f86196508a0dafc71\",\"endVotingRound\":2,\"pIDID\":\"35\",\"verifier\":\"0xa396a79a861d6bb9c967066a831bb628ed9e50b4d4042c1af4234e59304f79f0dbe84de8c6eb61224a86f5250811188f84950c843fac97278bdac310c6456b59\"}",
"tx_type":"2005",
"actual_tx_cost":"1613052000000000000000",
"fail_reason":"Submit a cancel proposal error:to be canceled proposal not found",
"receive_type":"contract",
"sequence":259030000,
"create_time":"2019-09-09 17:17:43",
"update_time":"2019-09-09 17:17:43",
"root":"0x493c2da6830bba032332a2e6d7a14d9cf66b673bb926d65df2a9c68bafbfc53d",
"cumulative_gas_used":"537684",
"logs_bloom":"0x00000000000000000000000000000000000000000000000000000000000000000000000000000000000040000000000000000000000000000000000000000000000000000000000000000000000000000000000000000000000000000000000000000000000000000000000000000000000004000000000000000000000000000000000000000000040000000000000000080000000000000000000000000000000000000000000000000000000000000000000000000000000000000200000000000000000000000000000000000000000000000000000000000000000000000000000000000000000000000000000000000000000000000000000000800000",
"logs":"[{\"address\":\"0x1000000000000000000000000000000000000005\",\"blockHash\":\"0x1203434661778157fa31301a447104211da7413acad9720c2c9cfd1c3cb559cd\",\"blockNumber\":25903,\"blockNumberRaw\":\"0x652f\",\"data\":\"0xf868b8667b22537461747573223a66616c73652c2244617461223a22222c224572724d7367223a225375626d697420612063616e63656c2070726f706f73616c206572726f723a746f2062652063616e63656c65642070726f706f73616c206e6f7420666f756e64227d\",\"logIndex\":38,\"logIndexRaw\":\"0x26\",\"removed\":false,\"topics\":[\"0x609b23bf287e1766014b9bd988a6787fc1221b26b44f43f150b389e5a11ebd06\"],\"transactionHash\":\"0x536ee1de3da029cce7b728141d037eab250f88e7fcd8c280ad7a0969b9c22848\",\"transactionIndex\":0,\"transactionIndexRaw\":\"0x0\"}]"
},
{ 
"hash":"0x8dd0be2fe640079b58236716aad2f42598ebeee7d81c4ed6bcd6ac2d4e799ab3",
"block_number":25275,
"block_hash":"0xb07a07b22ce0014c5a00c4a41a5cb7927f977974aa7712d6c154d0770319914d",
"transaction_index":0,
"timestamp":"2019-09-09 14:34:35",
"nonce":"14",
"tx_receipt_status":0,
"gas_price":"500000000000",
"gas_used":"50084",
"gas_limit":"61168",
"from":"0xeac327082dbc2cf9af6a17885df8fe9a815037c4",
"to":"0x1000000000000000000000000000000000000002",
"value":"0",
"input":"0xf8a1838203e99594cdf3e0bd7963855acaa3b549b8c71628c31551cbb842b84077fffc999d9f9403b65009f1eb27bae65774e2d8ea36f7b20a89f82642a5067557430e6edfe5320bb81c3666a19cf4a5172d6533117d7ebcd0f2c82055499050818092916368656e6461692d6e6f6465312d30303192917777772e62616964752e636f6d2d3030319a996368656e6461692d6e6f6465312d64657461696c732d303031",
"tx_info":"{\"benefitAddress\":\"0xcdf3e0bd7963855acaa3b549b8c71628c31551cb\",\"details\":\"chendai-node1-details-001\",\"externalId\":\"0x\",\"nodeId\":\"0x77fffc999d9f9403b65009f1eb27bae65774e2d8ea36f7b20a89f82642a5067557430e6edfe5320bb81c3666a19cf4a5172d6533117d7ebcd0f2c82055499050\",\"nodeName\":\"chendai-node1-001\",\"website\":\"www.baidu.com-001\"}",
"tx_type":"1001",
"actual_tx_cost":"25042000000000000",
"fail_reason":"This candidate is not exist",
"receive_type":"contract",
"sequence":252750000,
"create_time":"2019-09-09 17:17:43",
"update_time":"2019-09-09 17:17:43",
"root":"0x86ea6a2e06dc73ae73b79d75a7f847d4f6d1453c6dea983021d030bd14778b42",
"cumulative_gas_used":"50084",
"logs_bloom":"0x00000000000000000000000000000000000000000000000000000000000000000000000000000000000010000000000000000000000000000000000000000000000000000800000000400000000000000000000000000000000080000000000000000000000000000000000000000000000000000000000000000000000000002000000000000000000000000000000000000000000000000000000000000000080000000000000000000000000000000000000000000000000000000000000000000000000000000000000000000000000000000000000000000000000000000000000000000000000000000000000000000000000000000000000000000000",
"logs":"[{\"address\":\"0x1000000000000000000000000000000000000002\",\"blockHash\":\"0xb07a07b22ce0014c5a00c4a41a5cb7927f977974aa7712d6c154d0770319914d\",\"blockNumber\":25275,\"blockNumberRaw\":\"0x62bb\",\"data\":\"0xf843b8417b22537461747573223a66616c73652c2244617461223a22222c224572724d7367223a22546869732063616e646964617465206973206e6f74206578697374227d\",\"logIndex\":35,\"logIndexRaw\":\"0x23\",\"removed\":false,\"topics\":[\"0x6171fdca598d5b5b0972f826968da3c55dbf3423f194b07e62a2d999bd0d14e0\"],\"transactionHash\":\"0x8dd0be2fe640079b58236716aad2f42598ebeee7d81c4ed6bcd6ac2d4e799ab3\",\"transactionIndex\":0,\"transactionIndexRaw\":\"0x0\"}]"
},
{ 
"hash":"0xa2f003b6cb4758ffd61a99d39e8f50382abafd9464b614a07e5419dc1fa267ac",
"block_number":36870,
"block_hash":"0x98b99a6b35f611b9bed8aeef25f5c13c825c6e766d404a1dc72ba5b3942b4cc2",
"transaction_index":0,
"timestamp":"2019-09-09 16:59:24",
"nonce":"21",
"tx_receipt_status":0,
"gas_price":"500000000000",
"gas_used":"50084",
"gas_limit":"61168",
"from":"0xeac327082dbc2cf9af6a17885df8fe9a815037c4",
"to":"0x1000000000000000000000000000000000000002",
"value":"0",
"input":"0xf8a1838203e99594cdf3e0bd7963855acaa3b549b8c71628c31551cbb842b84077fffc999d9f9403b65009f1eb27bae65774e2d8ea36f7b20a89f82642a5067557430e6edfe5320bb81c3666a19cf4a5172d6533117d7ebcd0f2c82055499050818092916368656e6461692d6e6f6465312d30303192917777772e62616964752e636f6d2d3030319a996368656e6461692d6e6f6465312d64657461696c732d303031",
"tx_info":"{\"benefitAddress\":\"0xcdf3e0bd7963855acaa3b549b8c71628c31551cb\",\"details\":\"chendai-node1-details-001\",\"externalId\":\"0x\",\"nodeId\":\"0x77fffc999d9f9403b65009f1eb27bae65774e2d8ea36f7b20a89f82642a5067557430e6edfe5320bb81c3666a19cf4a5172d6533117d7ebcd0f2c82055499050\",\"nodeName\":\"chendai-node1-001\",\"website\":\"www.baidu.com-001\"}",
"tx_type":"1001",
"actual_tx_cost":"25042000000000000",
"fail_reason":"This candidate is not exist",
"receive_type":"contract",
"sequence":368700000,
"create_time":"2019-09-09 17:18:33",
"update_time":"2019-09-09 17:18:33",
"root":"0x314d6090f425ceab970e46862a776cf87e8c956c32f5f8f8d68d24b3380fb00d",
"cumulative_gas_used":"50084",
"logs_bloom":"0x00000000000000000000000000000000000000000000000000000000000000000000000000000000000010000000000000000000000000000000000000000000000000000800000000400000000000000000000000000000000080000000000000000000000000000000000000000000000000000000000000000000000000002000000000000000000000000000000000000000000000000000000000000000080000000000000000000000000000000000000000000000000000000000000000000000000000000000000000000000000000000000000000000000000000000000000000000000000000000000000000000000000000000000000000000000",
"logs":"[{\"address\":\"0x1000000000000000000000000000000000000002\",\"blockHash\":\"0x98b99a6b35f611b9bed8aeef25f5c13c825c6e766d404a1dc72ba5b3942b4cc2\",\"blockNumber\":36870,\"blockNumberRaw\":\"0x9006\",\"data\":\"0xf843b8417b22537461747573223a66616c73652c2244617461223a22222c224572724d7367223a22546869732063616e646964617465206973206e6f74206578697374227d\",\"logIndex\":56,\"logIndexRaw\":\"0x38\",\"removed\":false,\"topics\":[\"0x6171fdca598d5b5b0972f826968da3c55dbf3423f194b07e62a2d999bd0d14e0\"],\"transactionHash\":\"0xa2f003b6cb4758ffd61a99d39e8f50382abafd9464b614a07e5419dc1fa267ac\",\"transactionIndex\":0,\"transactionIndexRaw\":\"0x0\"}]"
},
{ 
"hash":"0xd0bd7fa56e7e505d870469706fbef3b05a88f43086e56bea32cbe9cfd7e010e9",
"block_number":25961,
"block_hash":"0xf75c6d2a3eddac02d348e84f2ff78912eb457b931f7d302c04749a32072565b8",
"transaction_index":0,
"timestamp":"2019-09-09 14:42:30",
"nonce":"18",
"tx_receipt_status":0,
"gas_price":"500000000000",
"gas_used":"50084",
"gas_limit":"61168",
"from":"0xeac327082dbc2cf9af6a17885df8fe9a815037c4",
"to":"0x1000000000000000000000000000000000000002",
"value":"0",
"input":"0xf8a1838203e99594cdf3e0bd7963855acaa3b549b8c71628c31551cbb842b84077fffc999d9f9403b65009f1eb27bae65774e2d8ea36f7b20a89f82642a5067557430e6edfe5320bb81c3666a19cf4a5172d6533117d7ebcd0f2c82055499050818092916368656e6461692d6e6f6465312d30303192917777772e62616964752e636f6d2d3030319a996368656e6461692d6e6f6465312d64657461696c732d303031",
"tx_info":"{\"benefitAddress\":\"0xcdf3e0bd7963855acaa3b549b8c71628c31551cb\",\"details\":\"chendai-node1-details-001\",\"externalId\":\"0x\",\"nodeId\":\"0x77fffc999d9f9403b65009f1eb27bae65774e2d8ea36f7b20a89f82642a5067557430e6edfe5320bb81c3666a19cf4a5172d6533117d7ebcd0f2c82055499050\",\"nodeName\":\"chendai-node1-001\",\"website\":\"www.baidu.com-001\"}",
"tx_type":"1001",
"actual_tx_cost":"25042000000000000",
"fail_reason":"This candidate is not exist",
"receive_type":"contract",
"sequence":259610000,
"create_time":"2019-09-09 17:17:43",
"update_time":"2019-09-09 17:17:43",
"root":"0x15cf44a367a0b77a3709bf63eeb21506cf7d4d3d00de0a0b3cea9474db3ec369",
"cumulative_gas_used":"50084",
"logs_bloom":"0x00000000000000000000000000000000000000000000000000000000000000000000000000000000000010000000000000000000000000000000000000000000000000000800000000400000000000000000000000000000000080000000000000000000000000000000000000000000000000000000000000000000000000002000000000000000000000000000000000000000000000000000000000000000080000000000000000000000000000000000000000000000000000000000000000000000000000000000000000000000000000000000000000000000000000000000000000000000000000000000000000000000000000000000000000000000",
"logs":"[{\"address\":\"0x1000000000000000000000000000000000000002\",\"blockHash\":\"0xf75c6d2a3eddac02d348e84f2ff78912eb457b931f7d302c04749a32072565b8\",\"blockNumber\":25961,\"blockNumberRaw\":\"0x6569\",\"data\":\"0xf843b8417b22537461747573223a66616c73652c2244617461223a22222c224572724d7367223a22546869732063616e646964617465206973206e6f74206578697374227d\",\"logIndex\":45,\"logIndexRaw\":\"0x2d\",\"removed\":false,\"topics\":[\"0x6171fdca598d5b5b0972f826968da3c55dbf3423f194b07e62a2d999bd0d14e0\"],\"transactionHash\":\"0xd0bd7fa56e7e505d870469706fbef3b05a88f43086e56bea32cbe9cfd7e010e9\",\"transactionIndex\":0,\"transactionIndexRaw\":\"0x0\"}]"
},
{ 
"hash":"0xd199e9c1efb0067029f160ad54504a8c2eedcf8d0ec907647746ace2cb196a4b",
"block_number":39550,
"block_hash":"0x9b5e745a3a3cf13db4691725e284a3a92915807dd14a9ac88d757b8846fd7e13",
"transaction_index":0,
"timestamp":"2019-09-09 17:35:01",
"nonce":"2",
"tx_receipt_status":1,
"gas_price":"2100000000000000",
"gas_used":"485584",
"gas_limit":"491424",
"from":"0xfd77803f5dc5280869cdc966c90c744632b3d463",
"to":"0x1000000000000000000000000000000000000005",
"value":"0",
"input":"0xf852838207d1b842b840f3ab2eb688347ad77185c993c9a0e78af595867350b7abe6582405411257781768fb873b7c7a63b7dfc9c88c02199f4a20eb60c4b68597b228868ccc63634e6983823132848301000014",
"tx_info":"{\"endVotingRound\":20,\"newVersion\":65536,\"nodeName\":\"hs_static3_171-test\",\"pIDID\":\"12\",\"verifier\":\"0xf3ab2eb688347ad77185c993c9a0e78af595867350b7abe6582405411257781768fb873b7c7a63b7dfc9c88c02199f4a20eb60c4b68597b228868ccc63634e69\"}",
"tx_type":"2001",
"actual_tx_cost":"1019726400000000000000",
"fail_reason":null,
"receive_type":"contract",
"sequence":395500000,
"create_time":"2019-09-09 17:35:07",
"update_time":"2019-09-09 17:35:07",
"root":"0xb79d1d297f3cb735a6da6b340b45e6b0de574f3caaca08f4e3ddc27f65bc4927",
"cumulative_gas_used":"485584",
"logs_bloom":"0x00000000000000000000000000000000000800000000000000000000000000000000000000000000000040000000000000000000000000000000000000000000000000000000000000000000000000000000000000040000000000000000000000000000000000000000000000000000000000000000000000000000000000080000000000000000040000000000000000000000000000000000000000000000000000000000000000000000000000000000000000000000000000000200000000000000000000000000000000000000000000000000000000000000000000000000000000000000000000000000000000000000000000000000000000000000",
"logs":"[{\"address\":\"0x1000000000000000000000000000000000000005\",\"blockHash\":\"0x9b5e745a3a3cf13db4691725e284a3a92915807dd14a9ac88d757b8846fd7e13\",\"blockNumber\":39550,\"blockNumberRaw\":\"0x9a7e\",\"data\":\"0xe6a57b22537461747573223a747275652c2244617461223a22222c224572724d7367223a22227d\",\"logIndex\":59,\"logIndexRaw\":\"0x3b\",\"removed\":false,\"topics\":[\"0x4e701ff48cddd8d9ae76d4abc76fdf8142996b98a55d862e7a02c126a31586e6\"],\"transactionHash\":\"0xd199e9c1efb0067029f160ad54504a8c2eedcf8d0ec907647746ace2cb196a4b\",\"transactionIndex\":0,\"transactionIndexRaw\":\"0x0\"}]"
},
{ 
"hash":"0xef687b4f945abdaf450388c7cf014117a18a4143b3184205f49a65138ff2ee4e",
"block_number":25935,
"block_hash":"0xfe7d0b0bf29f10815e48c00087ed15aefa62b279a65d8ee4409d3e41b657604a",
"transaction_index":0,
"timestamp":"2019-09-09 14:42:13",
"nonce":"15",
"tx_receipt_status":0,
"gas_price":"500000000000",
"gas_used":"53052",
"gas_limit":"59104",
"from":"0xeac327082dbc2cf9af6a17885df8fe9a815037c4",
"to":"0x1000000000000000000000000000000000000002",
"value":"0",
"input":"0xf857838203eab842b84077fffc999d9f9403b65009f1eb27bae65774e2d8ea36f7b20a89f82642a5067557430e6edfe5320bb81c3666a19cf4a5172d6533117d7ebcd0f2c8205549905081808c8b034f087d1bea6a2b63fffe",
"tx_info":"{\"amount\":\"4000000999999999999999998\",\"nodeId\":\"0x77fffc999d9f9403b65009f1eb27bae65774e2d8ea36f7b20a89f82642a5067557430e6edfe5320bb81c3666a19cf4a5172d6533117d7ebcd0f2c82055499050\",\"stakingBlockNum\":\"\",\"type\":0}",
"tx_type":"1002",
"actual_tx_cost":"26526000000000000",
"fail_reason":"This candidate is not exist",
"receive_type":"contract",
"sequence":259350000,
"create_time":"2019-09-09 17:17:43",
"update_time":"2019-09-09 17:17:43",
"root":"0x946276bce7e959e3885fe65d938e3efa77fd6e8198fd30023dfcf246058ffeb4",
"cumulative_gas_used":"53052",
"logs_bloom":"0x00000000000000000000000000000000000000000000000000000000000000000000000000000000000000000000000000000000000000000000000000000000000000000000000000400000000000000000000000000000000080000000000000000080002000000000000000000000000000000000000000000000000000000000000000000000000000000000000000000000000000000000000000000000080000000000000000004000000000000000000000000000000000000000000000000000000000000000000000000000000000000000000000000000000000000000000000000000000000000000000000000000000000000000000000000000",
"logs":"[{\"address\":\"0x1000000000000000000000000000000000000002\",\"blockHash\":\"0xfe7d0b0bf29f10815e48c00087ed15aefa62b279a65d8ee4409d3e41b657604a\",\"blockNumber\":25935,\"blockNumberRaw\":\"0x654f\",\"data\":\"0xf843b8417b22537461747573223a66616c73652c2244617461223a22222c224572724d7367223a22546869732063616e646964617465206973206e6f74206578697374227d\",\"logIndex\":42,\"logIndexRaw\":\"0x2a\",\"removed\":false,\"topics\":[\"0x4ca61667a6086c915d0bf1b542abd171bdf676d52eed640e514e984beed3fefe\"],\"transactionHash\":\"0xef687b4f945abdaf450388c7cf014117a18a4143b3184205f49a65138ff2ee4e\",\"transactionIndex\":0,\"transactionIndexRaw\":\"0x0\"}]"
},
{ 
"hash":"0xf21b6821d85ce1b90466062221812d50338afa77981a5247f13df9b6988d7233",
"block_number":36261,
"block_hash":"0x3d33c29544a7f42d473746f34335921fd1e59ca6424c47be70fb59badbee35db",
"transaction_index":0,
"timestamp":"2019-09-09 16:52:38",
"nonce":"19",
"tx_receipt_status":0,
"gas_price":"500000000000",
"gas_used":"50084",
"gas_limit":"61168",
"from":"0xeac327082dbc2cf9af6a17885df8fe9a815037c4",
"to":"0x1000000000000000000000000000000000000002",
"value":"0",
"input":"0xf8a1838203e99594cdf3e0bd7963855acaa3b549b8c71628c31551cbb842b84077fffc999d9f9403b65009f1eb27bae65774e2d8ea36f7b20a89f82642a5067557430e6edfe5320bb81c3666a19cf4a5172d6533117d7ebcd0f2c82055499050818092916368656e6461692d6e6f6465312d30303192917777772e62616964752e636f6d2d3030319a996368656e6461692d6e6f6465312d64657461696c732d303031",
"tx_info":"{\"benefitAddress\":\"0xcdf3e0bd7963855acaa3b549b8c71628c31551cb\",\"details\":\"chendai-node1-details-001\",\"externalId\":\"0x\",\"nodeId\":\"0x77fffc999d9f9403b65009f1eb27bae65774e2d8ea36f7b20a89f82642a5067557430e6edfe5320bb81c3666a19cf4a5172d6533117d7ebcd0f2c82055499050\",\"nodeName\":\"chendai-node1-001\",\"website\":\"www.baidu.com-001\"}",
"tx_type":"1001",
"actual_tx_cost":"25042000000000000",
"fail_reason":"This candidate is not exist",
"receive_type":"contract",
"sequence":362610000,
"create_time":"2019-09-09 17:18:33",
"update_time":"2019-09-09 17:18:33",
"root":"0xd3f05bb4c214684c53b12f30967e18c833532341b600fca163d039f6879bfcb3",
"cumulative_gas_used":"50084",
"logs_bloom":"0x00000000000000000000000000000000000000000000000000000000000000000000000000000000000010000000000000000000000000000000000000000000000000000800000000400000000000000000000000000000000080000000000000000000000000000000000000000000000000000000000000000000000000002000000000000000000000000000000000000000000000000000000000000000080000000000000000000000000000000000000000000000000000000000000000000000000000000000000000000000000000000000000000000000000000000000000000000000000000000000000000000000000000000000000000000000",
"logs":"[{\"address\":\"0x1000000000000000000000000000000000000002\",\"blockHash\":\"0x3d33c29544a7f42d473746f34335921fd1e59ca6424c47be70fb59badbee35db\",\"blockNumber\":36261,\"blockNumberRaw\":\"0x8da5\",\"data\":\"0xf843b8417b22537461747573223a66616c73652c2244617461223a22222c224572724d7367223a22546869732063616e646964617465206973206e6f74206578697374227d\",\"logIndex\":54,\"logIndexRaw\":\"0x36\",\"removed\":false,\"topics\":[\"0x6171fdca598d5b5b0972f826968da3c55dbf3423f194b07e62a2d999bd0d14e0\"],\"transactionHash\":\"0xf21b6821d85ce1b90466062221812d50338afa77981a5247f13df9b6988d7233\",\"transactionIndex\":0,\"transactionIndexRaw\":\"0x0\"}]"
}]