[
{
"hash":"0x2746d1a62b30e9ac35ebf56cecafcda0e28823fcad62eb84eed0c690cf5aea69",
"block_number":23126,
"block_hash":"0x111e3ceeadd2b6b8d11c2820c4408dd57253eca7fc96157bf4e690784ece1d33",
"transaction_index":0,
"timestamp":"2019-09-18 06:45:02",
"nonce":"8",
"tx_receipt_status":0,
"gas_price":"500000000000",
"gas_used":"44312",
"gas_limit":"44312",
"from":"0x9991abc294fc8ec4b1896883e1d589a8f8001b49",
"to":"0x1000000000000000000000000000000000000005",
"value":"0",
"input":"0xf8b4838207d3b842b840afa8558b23da499ff598ea9ae3c5838a8cb82915551a57035a5a5630f8a78742eb0c3042c060decdc89efb0cf5cc73c87d1aaac16f5365258c4db90decc19893a1a0c27b96e66731bce70d7df313e1054629c315b3bdcfd7fe745a4de927d3cc06430183820702b843b8410c8c6aa4065a75ec62cedc1457ba0c68d64da788ab0c7f0f7a6867a2093bd49603841e6f87e15c55a39ca879c73d649c8ec3494a0993154785269f26b19da7b600",
"tx_info":"{\"option\":\"1\",\"programVersion\":\"1794\",\"proposalId\":\"0xc27b96e66731bce70d7df313e1054629c315b3bdcfd7fe745a4de927d3cc0643\",\"verifier\":\"0xafa8558b23da499ff598ea9ae3c5838a8cb82915551a57035a5a5630f8a78742eb0c3042c060decdc89efb0cf5cc73c87d1aaac16f5365258c4db90decc19893\",\"versionSign\":\"0x0c8c6aa4065a75ec62cedc1457ba0c68d64da788ab0c7f0f7a6867a2093bd49603841e6f87e15c55a39ca879c73d649c8ec3494a0993154785269f26b19da7b600\"}",
"tx_type":"2003",
"actual_tx_cost":"22156000000000000",
"fail_reason":"Tx caller differ from staking",
"receive_type":"contract",
"sequence":231260000,
"create_time":"2019-09-18 06:45:14",
"update_time":"2019-09-18 06:45:14"
},
{
"hash":"0x40b395462a74d6be75589336176efcd0658ab45f078eb8f407aee587f70983af",
"block_number":21561,
"block_hash":"0x4f7ba1118f2870965a6ac63ad16447098d5791b56aec2762e8f6dc2603ddbdcf",
"transaction_index":0,
"timestamp":"2019-09-18 06:29:14",
"nonce":"0",
"tx_receipt_status":1,
"gas_price":"500000000000",
"gas_used":"70728",
"gas_limit":"70728",
"from":"0xfa24fde0cfba72c3046f6d991c18c05e8d40a742",
"to":"0x1000000000000000000000000000000000000001",
"value":"0",
"input":"0xe983820fa09594fa24fde0cfba72c3046f6d991c18c05e8d40a7428ecdcc148a021e19e0c9bab2400000",
"tx_info":"{\"account\":\"0xfa24fde0cfba72c3046f6d991c18c05e8d40a742\",\"plan\":[{\"amount\":\"10000000000000000000000\",\"epoch\":20}]}",
"tx_type":"4000",
"actual_tx_cost":"35364000000000000",
"fail_reason":null,
"receive_type":"contract",
"sequence":215610000,
"create_time":"2019-09-18 06:29:22",
"update_time":"2019-09-18 06:29:22"
},
{
"hash":"0xa6773991f694e574c93abf697baefb5381f77def3c1b8ac1c76627f55ff7a2fe",
"block_number":19351,
"block_hash":"0xc857fe8c27a40247f26dfbb98825ca6aab7e8a6c50240871202d6f3059daaf72",
"transaction_index":0,
"timestamp":"2019-09-18 06:06:37",
"nonce":"0",
"tx_receipt_status":1,
"gas_price":"500000000000",
"gas_used":"48720",
"gas_limit":"48720",
"from":"0x0772fd8e5126c01b98d3a93c64546306149202ed",
"to":"0x1000000000000000000000000000000000000002",
"value":"0",
"input":"0xf854838203ec8180b842b84075143a7d588c5db985711c7dd5cd322d5b8177a4a4fd4f112873b014a2e660c1b45ce5bbaec5448b5c6654c565d9377a4950922a864c1b6feb0126be968f4b288988b469471f80140000",
"tx_info":"{\"amount\":\"13000000000000000000\",\"nodeId\":\"0x75143a7d588c5db985711c7dd5cd322d5b8177a4a4fd4f112873b014a2e660c1b45ce5bbaec5448b5c6654c565d9377a4950922a864c1b6feb0126be968f4b28\",\"nodeName\":\"修改节点01\",\"stakingBlockNum\":\"2552\",\"type\":0}",
"tx_type":"1004",
"actual_tx_cost":"24360000000000000",
"fail_reason":null,
"receive_type":"contract",
"sequence":193510000,
"create_time":"2019-09-18 06:06:43",
"update_time":"2019-09-18 06:06:43"
},
{
"hash":"0xad531cc74ca4ca31d73410fb2fdef30cb0bff6c5e9b4db4b29f3f03642ec15fe",
"block_number":4324,
"block_hash":"0x3bf40c8e165c354955760aeddb8c93e2dcf89dfbd6b84fb05d51cbc0bf56703e",
"transaction_index":0,
"timestamp":"2019-09-18 03:34:36",
"nonce":"2",
"tx_receipt_status":1,
"gas_price":"500000000000",
"gas_used":"52792",
"gas_limit":"52792",
"from":"0x7b02c1ba4b67633c42391bc2c266d5dc6e9c83cd",
"to":"0x1000000000000000000000000000000000000002",
"value":"0",
"input":"0xf856838203eab842b8405bb5426795413a088c5bb143119768b3cec3bcc59dcc02afc68c33a124eeb0334a7befa6c87b7256a4fd25b23d91c8a14e8bd89435a059ad81e90402c8e30fee81808b8ad3c21bcecceda1000000",
"tx_info":"{\"amount\":\"1000000000000000000000000\",\"nodeId\":\"0x5bb5426795413a088c5bb143119768b3cec3bcc59dcc02afc68c33a124eeb0334a7befa6c87b7256a4fd25b23d91c8a14e8bd89435a059ad81e90402c8e30fee\",\"nodeName\":\"修改节点02\",\"stakingBlockNum\":\"\",\"type\":0}",
"tx_type":"1002",
"actual_tx_cost":"26396000000000000",
"fail_reason":null,
"receive_type":"contract",
"sequence":43240000,
"create_time":"2019-09-18 03:34:41",
"update_time":"2019-09-18 03:34:41"
},
{
"hash":"0xec51c09889ca3901e906f9d61aa7f8c37f3197c10c1581cfcfd6e3bbc6cd818b",
"block_number":6691,
"block_hash":"0x0242790feb1bf6329f6190de239a69fce47f0cca74449158c0af9f53e0af7ff9",
"transaction_index":0,
"timestamp":"2019-09-18 03:58:31",
"nonce":"5",
"tx_receipt_status":1,
"gas_price":"500000000000",
"gas_used":"70728",
"gas_limit":"70728",
"from":"0x7b02c1ba4b67633c42391bc2c266d5dc6e9c83cd",
"to":"0x1000000000000000000000000000000000000001",
"value":"0",
"input":"0xe983820fa095947b02c1ba4b67633c42391bc2c266d5dc6e9c83cd8ecdcc148a152d02c7e14af6800000",
"tx_info":"{\"account\":\"0x7b02c1ba4b67633c42391bc2c266d5dc6e9c83cd\",\"plan\":[{\"amount\":\"100000000000000000000000\",\"epoch\":20}]}",
"tx_type":"4000",
"actual_tx_cost":"35364000000000000",
"fail_reason":null,
"receive_type":"contract",
"sequence":66910000,
"create_time":"2019-09-18 03:58:34",
"update_time":"2019-09-18 03:58:34"
},
{
"hash":"0xf1c55d6ee08d169c5d9a1f42d3951db68c32cd9d3faedc756a17be8fa0fa1071",
"block_number":4270,
"block_hash":"0x52553610d356911c8282d2fcf477695d88eb051bebb3fbf2b4e0f79e95c99303",
"transaction_index":0,
"timestamp":"2019-09-18 03:34:03",
"nonce":"3",
"tx_receipt_status":1,
"gas_price":"500000000000",
"gas_used":"52792",
"gas_limit":"52792",
"from":"0x9991abc294fc8ec4b1896883e1d589a8f8001b49",
"to":"0x1000000000000000000000000000000000000002",
"value":"0",
"input":"0xf856838203eab842b84075143a7d588c5db985711c7dd5cd322d5b8177a4a4fd4f112873b014a2e660c1b45ce5bbaec5448b5c6654c565d9377a4950922a864c1b6feb0126be968f4b2881808b8ad3c21bcecceda1000000",
"tx_info":"{\"amount\":\"1000000000000000000000000\",\"nodeId\":\"0x75143a7d588c5db985711c7dd5cd322d5b8177a4a4fd4f112873b014a2e660c1b45ce5bbaec5448b5c6654c565d9377a4950922a864c1b6feb0126be968f4b28\",\"nodeName\":\"修改节点01\",\"stakingBlockNum\":\"\",\"type\":0}",
"tx_type":"1002",
"actual_tx_cost":"26396000000000000",
"fail_reason":null,
"receive_type":"contract",
"sequence":42700000,
"create_time":"2019-09-18 03:34:06",
"update_time":"2019-09-18 03:34:06"
},
{
"hash":"0xfec63f03356fe9bc48c4c0de5a97f514344ed69fb1080c6df64dd3bea2e9c554",
"block_number":26795,
"block_hash":"0xe61697f3bae3b8a0c2b59f4f867833f62a5faba7011c9db9f056b23e02c07e34",
"transaction_index":0,
"timestamp":"2019-09-18 07:21:51",
"nonce":"12",
"tx_receipt_status":1,
"gas_price":"500000000000",
"gas_used":"52032",
"gas_limit":"52032",
"from":"0x9991abc294fc8ec4b1896883e1d589a8f8001b49",
"to":"0x1000000000000000000000000000000000000002",
"value":"0",
"input":"0xf848838203ebb842b84075143a7d588c5db985711c7dd5cd322d5b8177a4a4fd4f112873b014a2e660c1b45ce5bbaec5448b5c6654c565d9377a4950922a864c1b6feb0126be968f4b28",
"tx_info":"{\"amount\":\"9000000000000000000000001\",\"nodeId\":\"0x75143a7d588c5db985711c7dd5cd322d5b8177a4a4fd4f112873b014a2e660c1b45ce5bbaec5448b5c6654c565d9377a4950922a864c1b6feb0126be968f4b28\",\"nodeName\":\"修改节点01\",\"stakingBlockNum\":\"2552\"}",
"tx_type":"1003",
"actual_tx_cost":"26016000000000000",
"fail_reason":null,
"receive_type":"contract",
"sequence":267950000,
"create_time":"2019-09-18 07:22:05",
"update_time":"2019-09-18 07:22:05"
},
{
  "hash":"0x1a5cbb5d5c6c3e913d46c72eb66516f67c55ec139f2a276a1593b5fd930408cc",
  "block_number":85196,
  "block_hash":"0x3d7b3642dc24f613b49a8aaf6ac7877f908c03a15b7552aaaca2150a31c2a24a",
  "transaction_index":0,
  "timestamp":"2019-09-18 15:18:08",
  "nonce":"4",
  "tx_receipt_status":1,
  "gas_price":"500000000000",
  "gas_used":"40924",
  "gas_limit":"40924",
  "from":"0x0772fd8e5126c01b98d3a93c64546306149202ed",
  "to":"0x1000000000000000000000000000000000000002",
  "value":"0",
  "input":"0xf857838203ed838255a4b842b8400aa9805681d8f77c05f317efc141c97d5adb511ffb51f5a251d2d7a4a3a96d9a12adf39f06b702f0ccdff9eddc1790eb272dca31b0c47751d49b5931c58701e78a893635c9adc5dea00000",
  "tx_info":"{\"amount\":\"1000000000000000000000\",\"nodeId\":\"0x0aa9805681d8f77c05f317efc141c97d5adb511ffb51f5a251d2d7a4a3a96d9a12adf39f06b702f0ccdff9eddc1790eb272dca31b0c47751d49b5931c58701e7\",\"nodeName\":\"cdm-004\",\"stakingBlockNum\":\"21924\"}",
  "tx_type":"1005",
  "actual_tx_cost":"20462000000000000",
  "fail_reason":null,
  "receive_type":"contract",
  "sequence":851960000,
  "create_time":"2019-09-18 15:16:41",
  "update_time":"2019-09-18 15:16:41"
},
  {
    "hash":"0xd809bc1ce26f3ab98d1736c5bc04e17e906917b135bec3cbfaaa9b41a046c1db",
    "block_number":87952,
    "block_hash":"0xb4e88a68d2123ef416fdb9c8424d7108c9d33a73534cd7867608fcb98e12444d",
    "transaction_index":0,
    "timestamp":"2019-09-18 16:27:21",
    "nonce":"14",
    "tx_receipt_status":1,
    "gas_price":"3000000000000000",
    "gas_used":"537480",
    "gas_limit":"537480",
    "from":"0x2e95e3ce0a54951eb9a99152a6d5827872dfb4fd",
    "to":"0x1000000000000000000000000000000000000005",
    "value":"0",
    "input":"0xf86c838207d5b842b8400aa9805681d8f77c05f317efc141c97d5adb511ffb51f5a251d2d7a4a3a96d9a12adf39f06b702f0ccdff9eddc1790eb272dca31b0c47751d49b5931c58701e73801a1a00f91b6612990395c41ad7ecf559572022d489034f5e883788ea43453a427288f",
    "tx_info":"{\"canceledProposalID\":\"0x0f91b6612990395c41ad7ecf559572022d489034f5e883788ea43453a427288f\",\"endVotingRound\":1,\"nodeName\":\"cdm-004\",\"pIDID\":\"8\",\"verifier\":\"0x0aa9805681d8f77c05f317efc141c97d5adb511ffb51f5a251d2d7a4a3a96d9a12adf39f06b702f0ccdff9eddc1790eb272dca31b0c47751d49b5931c58701e7\"}",
    "tx_type":"2005",
    "actual_tx_cost":"1612440000000000000000",
    "fail_reason":null,
    "receive_type":"contract",
    "sequence":879520000,
    "create_time":"2019-09-18 19:58:12",
    "update_time":"2019-09-18 19:58:12"
  },
  {
    "hash":"0x2a38e844c8a8969b8f8f153ccdd1a4e7da85c1d3227c46c5aaf92c55f85125d0",
    "block_number":87793,
    "block_hash":"0x3cdd72252c84924a566267233d07eb93ba0d51042285ec3cfe6a92c489cdc560",
    "transaction_index":0,
    "timestamp":"2019-09-18 16:22:36",
    "nonce":"13",
    "tx_receipt_status":1,
    "gas_price":"1500000000000000",
    "gas_used":"355100",
    "gas_limit":"355100",
    "from":"0x2e95e3ce0a54951eb9a99152a6d5827872dfb4fd",
    "to":"0x1000000000000000000000000000000000000005",
    "value":"0",
    "input":"0xf849838207d0b842b8400aa9805681d8f77c05f317efc141c97d5adb511ffb51f5a251d2d7a4a3a96d9a12adf39f06b702f0ccdff9eddc1790eb272dca31b0c47751d49b5931c58701e737",
    "tx_info":"{\"nodeName\":\"cdm-004\",\"pIDID\":\"7\",\"verifier\":\"0x0aa9805681d8f77c05f317efc141c97d5adb511ffb51f5a251d2d7a4a3a96d9a12adf39f06b702f0ccdff9eddc1790eb272dca31b0c47751d49b5931c58701e7\"}",
    "tx_type":"2000",
    "actual_tx_cost":"532650000000000000000",
    "fail_reason":null,
    "receive_type":"contract",
    "sequence":877930000,
    "create_time":"2019-09-18 19:58:12",
    "update_time":"2019-09-18 19:58:12"
  },
  {
    "hash":"0x0f91b6612990395c41ad7ecf559572022d489034f5e883788ea43453a427288f",
    "block_number":87356,
    "block_hash":"0x66f8830a1bb3c28f0e85667a6d9a9f5f4fd817744ec4718309cb0497f7e36318",
    "transaction_index":0,
    "timestamp":"2019-09-18 16:11:13",
    "nonce":"12",
    "tx_receipt_status":1,
    "gas_price":"2100000000000000",
    "gas_used":"485444",
    "gas_limit":"485444",
    "from":"0x2e95e3ce0a54951eb9a99152a6d5827872dfb4fd",
    "to":"0x1000000000000000000000000000000000000005",
    "value":"0",
    "input":"0xf84f838207d1b842b8400aa9805681d8f77c05f317efc141c97d5adb511ffb51f5a251d2d7a4a3a96d9a12adf39f06b702f0ccdff9eddc1790eb272dca31b0c47751d49b5931c58701e736848301010004",
    "tx_info":"{\"endVotingRound\":4,\"newVersion\":65792,\"nodeName\":\"cdm-004\",\"pIDID\":\"6\",\"verifier\":\"0x0aa9805681d8f77c05f317efc141c97d5adb511ffb51f5a251d2d7a4a3a96d9a12adf39f06b702f0ccdff9eddc1790eb272dca31b0c47751d49b5931c58701e7\"}",
    "tx_type":"2001",
    "actual_tx_cost":"1019432400000000000000",
    "fail_reason":null,
    "receive_type":"contract",
    "sequence":873560000,
    "create_time":"2019-09-18 19:58:12",
    "update_time":"2019-09-18 19:58:12"
  },
  {
    "hash":"0x62cc25b3ca3b5ee4d2b9e24b48080955fdd909a5da23d3b6aa0c185c2e59b925",
    "block_number":72857,
    "block_hash":"0xd7acccf96cc88e991560eba2cbee1e369b7885d97308a347c34e276817016c88",
    "transaction_index":0,
    "timestamp":"2019-09-18 10:19:04",
    "nonce":"7",
    "tx_receipt_status":1,
    "gas_price":"500000000000",
    "gas_used":"44312",
    "gas_limit":"44312",
    "from":"0x2e95e3ce0a54951eb9a99152a6d5827872dfb4fd",
    "to":"0x1000000000000000000000000000000000000005",
    "value":"0",
    "input":"0xf8b4838207d3b842b8400aa9805681d8f77c05f317efc141c97d5adb511ffb51f5a251d2d7a4a3a96d9a12adf39f06b702f0ccdff9eddc1790eb272dca31b0c47751d49b5931c58701e7a1a06eeca4c3a441bb445cf2f38bf5c0bb0eec0244dabc4d8cd5e356e758fc98c2f70183820702b843b841d801fe525ad6a0965325b547980e0ee595111bf4d52fc6f138f103656be9262c1bcc16289f2a21bbb11723d322800271ac0134f3f2a6dff597333fdc788b135f00",
    "tx_info":"{\"nodeName\":\"cdm-004\",\"option\":\"1\",\"pIDID\":\"1\",\"programVersion\":\"1794\",\"proposalId\":\"0x6eeca4c3a441bb445cf2f38bf5c0bb0eec0244dabc4d8cd5e356e758fc98c2f7\",\"proposalType\":\"1\",\"url\":\"https://github.com/danielgogo/PIPs/blob/master/PIP-1.md\",\"verifier\":\"0x0aa9805681d8f77c05f317efc141c97d5adb511ffb51f5a251d2d7a4a3a96d9a12adf39f06b702f0ccdff9eddc1790eb272dca31b0c47751d49b5931c58701e7\",\"versionSign\":\"0xd801fe525ad6a0965325b547980e0ee595111bf4d52fc6f138f103656be9262c1bcc16289f2a21bbb11723d322800271ac0134f3f2a6dff597333fdc788b135f00\"}",
    "tx_type":"2003",
    "actual_tx_cost":"22156000000000000",
    "fail_reason":null,
    "receive_type":"contract",
    "sequence":728570000,
    "create_time":"2019-09-18 19:57:36",
    "update_time":"2019-09-18 19:57:36"
  },
  {
    "hash":"0x42435a85828b08e90a1aba1ee0b8fc71e3b75f990c913d59518cff02d6c1f880",
    "block_number":7878,
    "block_hash":"0xd92e9dd4baa166a833119f7f0c7291fea9e75adf41a8c27f61698a49662b6916",
    "transaction_index":0,
    "timestamp":"2019-09-18 10:03:55",
    "nonce":"1",
    "tx_receipt_status":1,
    "gas_price":"500000000000",
    "gas_used":"184572",
    "gas_limit":"184572",
    "from":"0x0926183b16c2e8a16b9b5f3b4bc40b9ec5de163a",
    "to":"0x1000000000000000000000000000000000000004",
    "value":"0",
    "input":"0xf905c483820bb801b905bcb905b97b22707265706172655f61223a7b2265706f6368223a302c22766965775f6e756d626572223a302c22626c6f636b5f68617368223a22307862396634653338386439346530613162326163316336366530646266623235323161363634346565643335376263353434326535396531363537386364636436222c22626c6f636b5f6e756d626572223a3530302c22626c6f636b5f696e646578223a302c2276616c69646174655f6e6f6465223a7b22696e646578223a302c2261646472657373223a22307865323634653063346632643362396537613833356233636262336164326632393463613639626430222c224e6f64654944223a223562623534323637393534313361303838633562623134333131393736386233636563336263633539646363303261666336386333336131323465656230333334613762656661366338376237323536613466643235623233643931633861313465386264383934333561303539616438316539303430326338653330666565222c22626c735075624b6579223a22333461366561373962666164366436326539313239623034636464346336346538353136353637636332326634356138633734626461346264633761333731306631616561363338633033646237623065306430646133623132303535613031306636306131323436376165343961653332636161626561623931346137626166393338323036663564313130653261356562393065623735623633646363663030303563663965323330343961623862333938376632346535613761303139227d2c227369676e6174757265223a2230786234623233383065636538663438636133373233623835376339303164633561366664393563396662366661316533393834376261653035356463333934353764333864636538326531636231373633373731636137356332313337633430383030303030303030303030303030303030303030303030303030303030303030227d2c22707265706172655f62223a7b2265706f6368223a302c22766965775f6e756d626572223a302c22626c6f636b5f68617368223a22307865393632643439643938636333376439346536663936666337343831323261653436626130356238613765383763363837613262313230313961346232666131222c22626c6f636b5f6e756d626572223a3530302c22626c6f636b5f696e646578223a302c2276616c69646174655f6e6f6465223a7b22696e646578223a302c2261646472657373223a22307865323634653063346632643362396537613833356233636262336164326632393463613639626430222c224e6f64654944223a223562623534323637393534313361303838633562623134333131393736386233636563336263633539646363303261666336386333336131323465656230333334613762656661366338376237323536613466643235623233643931633861313465386264383934333561303539616438316539303430326338653330666565222c22626c735075624b6579223a22333461366561373962666164366436326539313239623034636464346336346538353136353637636332326634356138633734626461346264633761333731306631616561363338633033646237623065306430646133623132303535613031306636306131323436376165343961653332636161626561623931346137626166393338323036663564313130653261356562393065623735623633646363663030303563663965323330343961623862333938376632346535613761303139227d2c227369676e6174757265223a2230783633343438376531386131666131353863653730366632336638636438666331373063656165363135313362393737313034643337383632336161303134363631376163626262643934376633376136303437613162343333323939616239303030303030303030303030303030303030303030303030303030303030303030227d7d",
    "tx_info":"{\"data\":\"{\\\"prepare_a\\\":{\\\"epoch\\\":0,\\\"view_number\\\":0,\\\"block_hash\\\":\\\"0xb9f4e388d94e0a1b2ac1c66e0dbfb2521a6644eed357bc5442e59e16578cdcd6\\\",\\\"block_number\\\":500,\\\"block_index\\\":0,\\\"validate_node\\\":{\\\"index\\\":0,\\\"address\\\":\\\"0xe264e0c4f2d3b9e7a835b3cbb3ad2f294ca69bd0\\\",\\\"NodeID\\\":\\\"5bb5426795413a088c5bb143119768b3cec3bcc59dcc02afc68c33a124eeb0334a7befa6c87b7256a4fd25b23d91c8a14e8bd89435a059ad81e90402c8e30fee\\\",\\\"blsPubKey\\\":\\\"34a6ea79bfad6d62e9129b04cdd4c64e8516567cc22f45a8c74bda4bdc7a3710f1aea638c03db7b0e0d0da3b12055a010f60a12467ae49ae32caabeab914a7baf938206f5d110e2a5eb90eb75b63dccf0005cf9e23049ab8b3987f24e5a7a019\\\"},\\\"signature\\\":\\\"0xb4b2380ece8f48ca3723b857c901dc5a6fd95c9fb6fa1e39847bae055dc39457d38dce82e1cb1763771ca75c2137c40800000000000000000000000000000000\\\"},\\\"prepare_b\\\":{\\\"epoch\\\":0,\\\"view_number\\\":0,\\\"block_hash\\\":\\\"0xe962d49d98cc37d94e6f96fc748122ae46ba05b8a7e87c687a2b12019a4b2fa1\\\",\\\"block_number\\\":500,\\\"block_index\\\":0,\\\"validate_node\\\":{\\\"index\\\":0,\\\"address\\\":\\\"0xe264e0c4f2d3b9e7a835b3cbb3ad2f294ca69bd0\\\",\\\"NodeID\\\":\\\"5bb5426795413a088c5bb143119768b3cec3bcc59dcc02afc68c33a124eeb0334a7befa6c87b7256a4fd25b23d91c8a14e8bd89435a059ad81e90402c8e30fee\\\",\\\"blsPubKey\\\":\\\"34a6ea79bfad6d62e9129b04cdd4c64e8516567cc22f45a8c74bda4bdc7a3710f1aea638c03db7b0e0d0da3b12055a010f60a12467ae49ae32caabeab914a7baf938206f5d110e2a5eb90eb75b63dccf0005cf9e23049ab8b3987f24e5a7a019\\\"},\\\"signature\\\":\\\"0x634487e18a1fa158ce706f23f8cd8fc170ceae61513b977104d378623aa0146617acbbbd947f37a6047a1b433299ab9000000000000000000000000000000000\\\"}}\",\"nodeName\":\"节点2\",\"stakingBlockNum\":\"3519\",\"type\":1,\"verify\":\"5bb5426795413a088c5bb143119768b3cec3bcc59dcc02afc68c33a124eeb0334a7befa6c87b7256a4fd25b23d91c8a14e8bd89435a059ad81e90402c8e30fee\"}",
    "tx_type":"3000",
    "actual_tx_cost":"92286000000000000",
    "fail_reason":null,
    "receive_type":"contract",
    "sequence":78780000,
    "create_time":"2019-09-18 10:03:59",
    "update_time":"2019-09-18 10:03:59"
  },
  {
    "hash":"0x199606ca32a23d1f07bf6881973b7d0f5a3af5b381e510fa723f658c91238f60",
    "block_number":21924,
    "block_hash":"0xb5f9f96b837ac77a4397787b220495dcc21541cba53391f0431bf58c93ba22bd",
    "transaction_index":0,
    "timestamp":"2019-09-17 22:05:28",
    "nonce":"1",
    "tx_receipt_status":1,
    "gas_price":"500000000000",
    "gas_used":"89144",
    "gas_limit":"89144",
    "from":"0x2e95e3ce0a54951eb9a99152a6d5827872dfb4fd",
    "to":"0x1000000000000000000000000000000000000002",
    "value":"0",
    "input":"0xf901bd838203e88180959460ceca9c1290ee56b98d4e160ef0453f7c40d219b842b8400aa9805681d8f77c05f317efc141c97d5adb511ffb51f5a251d2d7a4a3a96d9a12adf39f06b702f0ccdff9eddc1790eb272dca31b0c47751d49b5931c58701e79190354644363842363930303130363332428a897a726a2d6e6f6465318e8d7777772e62616964752e636f6d96956368656e6461692d6e6f6465312d64657461696c738c8b0422ca8b0a00a42500000083820702b843b841d801fe525ad6a0965325b547980e0ee595111bf4d52fc6f138f103656be9262c1bcc16289f2a21bbb11723d322800271ac0134f3f2a6dff597333fdc788b135f00b8c2b8c0623630316564383833386138633032616264396530613438616261333331356434393766666364646534393063663963346234366465343539393133356364643237366234356234396534346265623331656561346266643166313437633030343563393837626166343563306164646238396638333038393838366533623665316434343433663030646334626533383038646539366531633966303263303630383637303430383637613632343038356262333864303162616330313037",
    "tx_info":"{\"amount\":\"5000000000000000000000000\",\"benefitAddress\":\"0x60ceca9c1290ee56b98d4e160ef0453f7c40d219\",\"blockNumber\":\"21924\",\"details\":\"chendai-node1-details\",\"externalId\":\"5FD68B690010632B\",\"nodeId\":\"0x0aa9805681d8f77c05f317efc141c97d5adb511ffb51f5a251d2d7a4a3a96d9a12adf39f06b702f0ccdff9eddc1790eb272dca31b0c47751d49b5931c58701e7\",\"nodeName\":\"zrj-node1\",\"programVersion\":\"1794\",\"type\":0,\"website\":\"www.baidu.com\"}",
    "tx_type":"1000",
    "actual_tx_cost":"44572000000000000",
    "fail_reason":null,
    "receive_type":"contract",
    "sequence":219240000,
    "create_time":"2019-09-18 19:55:29",
    "update_time":"2019-09-18 19:55:29"
  },
  {
    "hash":"0x0816e6ba07ec03757ccb6d539e166f399552c2f99d65387d2a6e0236f1fcb242",
    "block_number":88890,
    "block_hash":"0x23dba6c468215be19051375ae2f432286b96d724431464d35300147462a7f688",
    "transaction_index":0,
    "timestamp":"2019-09-18 16:56:25",
    "nonce":"18",
    "tx_receipt_status":1,
    "gas_price":"500000000000",
    "gas_used":"50084",
    "gas_limit":"50084",
    "from":"0x2e95e3ce0a54951eb9a99152a6d5827872dfb4fd",
    "to":"0x1000000000000000000000000000000000000002",
    "value":"0",
    "input":"0xf8a1838203e995942e95e3ce0a54951eb9a99152a6d5827872dfb4fdb842b8400aa9805681d8f77c05f317efc141c97d5adb511ffb51f5a251d2d7a4a3a96d9a12adf39f06b702f0ccdff9eddc1790eb272dca31b0c47751d49b5931c58701e7818092916368656e6461692d6e6f6465312d30303192917777772e62616964752e636f6d2d3030319a996368656e6461692d6e6f6465312d64657461696c732d303031",
    "tx_info":"{\"benefitAddress\":\"0x2e95e3ce0a54951eb9a99152a6d5827872dfb4fd\",\"blockNumber\":\"21924\",\"details\":\"chendai-node1-details-001\",\"externalId\":\"0x\",\"nodeId\":\"0x0aa9805681d8f77c05f317efc141c97d5adb511ffb51f5a251d2d7a4a3a96d9a12adf39f06b702f0ccdff9eddc1790eb272dca31b0c47751d49b5931c58701e7\",\"nodeName\":\"chendai-node1-001\",\"perNodeName\":\"chendai-node1-001\",\"website\":\"www.baidu.com-001\"}",
    "tx_type":"1001",
    "actual_tx_cost":"25042000000000000",
    "fail_reason":null,
    "receive_type":"contract",
    "sequence":888900000,
    "create_time":"2019-09-18 19:58:16",
    "update_time":"2019-09-18 19:58:16"
  } ,
  {
    "hash":"0x2614d734ef351c546c9f308e4f44b708d68c528f242c138f20548ed967d398f4",
    "block_number":21941,
    "block_hash":"0x53e94018ff4a0bf38f78af5d08dd19f91db51beb3fb1a5ea89ad892ba0568c1f",
    "transaction_index":0,
    "timestamp":"2019-09-17 22:05:38",
    "nonce":"3",
    "tx_receipt_status":1,
    "gas_price":"500000000000",
    "gas_used":"52796",
    "gas_limit":"52796",
    "from":"0x2e95e3ce0a54951eb9a99152a6d5827872dfb4fd",
    "to":"0x1000000000000000000000000000000000000002",
    "value":"0",
    "input":"0xf857838203eab842b8400aa9805681d8f77c05f317efc141c97d5adb511ffb51f5a251d2d7a4a3a96d9a12adf39f06b702f0ccdff9eddc1790eb272dca31b0c47751d49b5931c58701e781808c8b0422ca8b0a00a425000000",
    "tx_info":"{\"amount\":\"5000000000000000000000000\",\"nodeId\":\"0x0aa9805681d8f77c05f317efc141c97d5adb511ffb51f5a251d2d7a4a3a96d9a12adf39f06b702f0ccdff9eddc1790eb272dca31b0c47751d49b5931c58701e7\",\"nodeName\":\"cdm-004\",\"stakingBlockNum\":\"\",\"type\":0}",
    "tx_type":"1002",
    "actual_tx_cost":"26398000000000000",
    "fail_reason":null,
    "receive_type":"contract",
    "sequence":219410000,
    "create_time":"2019-09-18 19:55:29",
    "update_time":"2019-09-18 19:55:29"
  },
  {
    "hash":"0xfec63f03356fe9bc48c4c0de5a97f514344ed69fb1080c6df64dd3bea2e9c554",
    "block_number":26795,
    "block_hash":"0xe61697f3bae3b8a0c2b59f4f867833f62a5faba7011c9db9f056b23e02c07e34",
    "transaction_index":0,
    "timestamp":"2019-09-18 07:21:51",
    "nonce":"12",
    "tx_receipt_status":1,
    "gas_price":"500000000000",
    "gas_used":"52032",
    "gas_limit":"52032",
    "from":"0x9991abc294fc8ec4b1896883e1d589a8f8001b49",
    "to":"0x1000000000000000000000000000000000000002",
    "value":"0",
    "input":"0xf848838203ebb842b84075143a7d588c5db985711c7dd5cd322d5b8177a4a4fd4f112873b014a2e660c1b45ce5bbaec5448b5c6654c565d9377a4950922a864c1b6feb0126be968f4b28",
    "tx_info":"{\"amount\":\"9000000000000000000000001\",\"nodeId\":\"0x75143a7d588c5db985711c7dd5cd322d5b8177a4a4fd4f112873b014a2e660c1b45ce5bbaec5448b5c6654c565d9377a4950922a864c1b6feb0126be968f4b28\",\"nodeName\":\"修改节点01\",\"stakingBlockNum\":\"2552\"}",
    "tx_type":"1003",
    "actual_tx_cost":"26016000000000000",
    "fail_reason":null,
    "receive_type":"contract",
    "sequence":267950000,
    "create_time":"2019-09-18 07:22:05",
    "update_time":"2019-09-18 07:22:05"
  }]
